:020000040800F2
:10000000D80400209D010008A5010008A7010008F0
:10001000A9010008AB010008AD01000800000000C4
:10002000000000000000000000000000AF01000818
:10003000B101000800000000B3010008B50100088C
:10004000B7010008B7010008B7010008B7010008B0
:10005000B7010008B7010008B7010008B7010008A0
:10006000B7010008B7010008B7010008B701000890
:10007000B7010008B7010008B7010008B701000880
:10008000B7010008B7010008B7010008B701000870
:10009000B7010008B7010008B7010008B701000860
:1000A000B7010008B7010008B7010008B701000850
:1000B000B7010008B7010008B7010008B701000840
:1000C000B7010008B7010008B7010008B701000830
:1000D000B7010008B7010008B7010008B701000820
:1000E000B7010008B7010008B7010008B701000810
:1000F000B7010008B7010008B7010008B701000800
:10010000B7010008B7010008B7010008B7010008EF
:10011000B7010008B7010008B7010008B7010008DF
:10012000B7010008B7010008B7010008B7010008CF
:10013000B7010008B7010008B7010008B7010008BF
:10014000B7010008B7010008B7010008B7010008AF
:10015000B7010008B7010008B7010008B70100089F
:10016000B7010008B7010008B7010008B70100088F
:10017000B7010008B7010008B7010008B70100087F
:10018000B7010008B7010008DFF80CD000F08CFBC5
:1001900000480047A53C0008D804002006488047D6
:1001A00006480047FEE7FEE7FEE7FEE7FEE7FEE75C
:1001B000FEE7FEE7FEE7FEE72510000889010008DC
:1001C0002DE9F0410024061B254671F1000605DAF1
:1001D00001240027D0EB070067EB0101161E73F125
:1001E000000605DA0027D2EB0702012567EB0303BF
:1001F00000F0C4F986460E4617469C46AC4204D031
:100200000025D0EB050E65EB010624B10020D2EBF2
:10021000000760EB030C704631463A466346BDE882
:10022000F081D2B201E000F8012B491EFBD27047E9
:100230000022F6E710B513460A4604461946FFF7B2
:10024000F0FF204610BD30B504460020034600E014
:100250005B1C934203D2E05CCD5C401BF8D030BD08
:100260002DE9FE4F804681EA0300C00F0C46009046
:1002700021F0004123F00045B8EB0200A94105D26E
:100280004046214690461C460B46024623F000405D
:10029000104347D0270DC7F30A00C3F30A51029059
:1002A000401A019040286BDAC3F3130040F4801B1E
:1002B0000098924620B10023D2EB030A63EB0B0BAC
:1002C00001985946C0F14002504600F088F90646B0
:1002D0000D4650465946019A00F0A0F910EB08006F
:1002E0006141002487EA115284EAE7731A4340D03F
:1002F000009A62B3019A012A4FEA075215DC001BEB
:1003000061EB02014FF0004202EA0752CDE90042E0
:10031000001C41F5801132462B4600F0D7F903B09E
:10032000BDE8F08F40462146F9E7001B61EB020172
:10033000001C41F5801300185B412018A2F500173E
:1003400047EB030140EAD570B6196D4111E06D0825
:100350004FEA360645EAC0754FEA0752001B61EBCB
:100360000201001C41F5801149084FEA30000019D4
:10037000514132462B4603B0BDE8F04F00F097B92B
:100380000098012240000023D0EB020263EBE073EF
:10039000009821464FEAE074B8EB000061EB0401DD
:1003A000E9E783F000435BE781F0004158E72DE97E
:1003B000FE4F81EA030404F0004421F00041009460
:1003C0004FF0000B23F0004350EA01045ED052EAE4
:1003D00003045BD0C3F30A54C1F30A552C44A4F2BE
:1003E000F3340194A0FB0254C1F3130141F48011D2
:1003F000C3F3130343F4801301FB024400FB034ED9
:10040000840A970A44EA815447EA8357A4FB0768A1
:1004100002958D0A05FB07854FEA932C04FB0C54CB
:100420002705029D4FEA065847EA1637B5EB08053F
:100430006EEB070C870E920E47EA811742EA831291
:10044000A7FB0201B6EB0B0164EB00042B0D43EAA2
:100450000C335E1844EB1C50DA465146E7FB0201B0
:10046000C5F313044FEA0B3343EA14534FEA043243
:10047000019C43EA0603A4F10C040294009CCDE91C
:1004800000B400F023F903B0BDE8F08F002001466E
:10049000F9E70EB5C10F80EAE0700844CA070021F1
:1004A00040F233438DE80E000A460B4600F00EF989
:1004B00003B000BD70B5C1F30A5201F0004500243D
:1004C000C1F3130140F2FF3341F480119A4201DA83
:1004D000002070BD40F233439A42A2F2334203DC63
:1004E000524200F08BF800E090402C43F1D04042A3
:1004F00070BD00F0004230F000400AD0C10D01F59F
:100500006071C0F3160042EA0151C208400711436E
:10051000704700200146704701F0004330B421F0DD
:10052000004150EA010206D00A0DA2F56072C1F343
:100530001301002A02DC30BC00207047440F44EA5B
:10054000C104C100E01830BC00EBC25000F078B824
:1005500030B50B46014600202022012409E021FA93
:1005600002F59D4205D303FA02F5491B04FA02F590
:100570002844151EA2F10102F1DC30BD2DE9F05F27
:100580000546002092469B46884606468146402402
:100590001BE0284641464746224600F02FF85346C6
:1005A0005A46C01A914110D311461846224600F00F
:1005B00016F82D1A67EB01084F462246012000214C
:1005C00000F00DF817EB00094E41201EA4F10104C4
:1005D000DFDC484631462A464346BDE8F09F202AE4
:1005E00004DB203A00FA02F1002070479140C2F18A
:1005F000200320FA03F3194390407047202A04DBBC
:10060000203A21FA02F00021704721FA02F3D0408B
:10061000C2F120029140084319467047202A06DBA8
:10062000CB17203A41FA02F043EAE07306E041FAC0
:1006300002F3D040C2F120029140084319467047AE
:100640000029A8BF7047401C490008BF20F00100E6
:10065000704710B4B0FA80FC00FA0CF050EA0104C4
:1006600004BF10BC704749B1CCF1200421FA04F456
:1006700011FA0CF118BF012121430843A3EB0C012F
:10068000CB1D4FEA00614FEA102042BF002010BC92
:10069000704700EBC35010440029A4BF10BC704742
:1006A000401C490008BF20F0010010BC704710B585
:1006B000141E73F1000408DA401C41F10001921885
:1006C0005B411A4301D120F0010010BD2DE9F04D2E
:1006D00092469B4611B1B1FA81F202E0B0FA80F283
:1006E00020329046FFF77BFF04460F4640EA0A009F
:1006F00041EA0B0153465A46084313D0114653EAC8
:10070000010019D0C8F140025046FFF777FF0546B7
:100710000E46504659464246FFF761FF084305D052
:10072000012004E020463946BDE8F08D0020054355
:1007300046EAE0762C4337430A986305E40AA0EBC7
:1007400008000022FD0A44EA47540A3002D500207E
:100750000146E9E7010510196941DDE9084500197D
:100760006941BDE8F04DA2E72DE9F04D81EA0304AF
:1007700004F0004B21F0004514464FF0000A23F02E
:10078000004150EA050220D054EA01021DD0C5F311
:100790000A570246C5F31303C1F31300C1F30A5607
:1007A00040F4801543F48013A7EB0608101BD646CF
:1007B00008F2FD3873EB050002D308F1010801E0EF
:1007C00092185B41B8F1000F03DA00200146BDE842
:1007D000F08D00204FF48011064684460EE0171B72
:1007E00073EB050705D3121B63EB050306434CEAC5
:1007F000010C49084FEA300092185B4150EA0107AA
:10080000EDD152EA030012D082EA040083EA050126
:10081000084305D0101BAB4106D20122002306E09D
:1008200000224FF0004302E06FF0010253101AEB78
:1008300006004CEB085110EB0A0041EB0B01BDE840
:10084000F04DFFF734BFC1F30A52C1F3130140F278
:10085000FF3341F480119A4202DA002001467047CA
:1008600040F233439A42A2F2334202DC5242FFF793
:10087000C5BEFFF7B4BE000030B5041E71F1000420
:1008800004DB4FF00044404264EB0101141E73F19D
:10089000000405DB1C464FF00043524263EB0403A7
:1008A000994208BF904230BD064C074D06E0E06813
:1008B00040F0010394E8070098471034AC42F6D3A7
:1008C000FFF766FC485E0008685E00082DE9F04D01
:1008D00000231A461B1A8A4103DB00200146BDE8AB
:1008E000F08DC1F30A52C1F3130141F480154FF0AA
:1008F000000BD10702D100186D41521E002704469B
:1009000040F2FF11384601EB620A3E46804602463D
:1009100000204FF48011FFF771FEC2197141BB181E
:1009200046EB0100B4EB030C75EB000C04D3E41AA6
:1009300065EB000517460E46241908F101006D41CC
:1009400080463428E3DDF91946EB0600091BA8416F
:1009500003D24FF0FF32134601E0002213461BEB97
:10096000070046EB0A51BDE8F04DFFF7A0BE01B508
:1009700009E0002000E0401C4CF250318842FAD3DC
:100980000099491E009100990029F2D108BDF0B5E7
:100990000A4600210023002400BF3DE0012505FA9E
:1009A00001F3156805EA03049C4234D105684F0041
:1009B0000326BE40B543056015794E00B540066874
:1009C000354305601579012D02D01579022D16D118
:1009D00085684F000326BE40B543856055794E00BB
:1009E000B540866835438560456801268E40B5432D
:1009F0004560456896798E40B6B235434560C56816
:100A00004F000326BE40B543C560D5794E00B540C2
:100A1000C6683543C560491C1029BFD3F0BDF0B589
:100A2000002300244D07ED0E02FA05F3CE1000F16D
:100A3000200555F826504E07F70E0F26BE40B54349
:100A4000CF1000F1200646F82750CE1000F1200507
:100A500055F8265045EA0304CE1000F1200545F86C
:100A60002640F0BD10B51148008840F040000F4905
:100A7000088000F04BF90D48008840F080000B49D9
:100A8000088000F043F90948801E008840F04000CB
:100A90000649891E088000F039F90448008840F0B2
:100AA00040000249088000F031F910BD1A040240EC
:100AB00010B51248008840F040001049088000F04E
:100AC00025F90E48801E008840F080000B49891EE1
:100AD000088000F01BF90948801E008840F04000A3
:100AE0000649891E088000F011F90448008840F08A
:100AF00040000249088000F009F910BD1A040240C4
:100B000070B5082500241948008840F08000174976
:100B100008801BE06006040E1448801C008840F02A
:100B200040001249891C088000F0F0F80F48008846
:100B300040F040000D49088000F0E8F80B48083804
:100B4000006800F0800008B144F00104281EA5F1FF
:100B50000101CDB2DED10548801C008840F0400084
:100B60000249891C0880204670BD0000180402401C
:100B700070B50446082527E01948008840F0400079
:100B80001749088000F0C2F804F0800040B1144812
:100B9000801E008840F080001149891E088005E011
:100BA0000F48008840F080000D4908806006040E60
:100BB00000F0ACF80A48801E008840F04000084968
:100BC000891E088000F0A2F8281EA5F10101CDB20F
:100BD000D2D10348008840F040000149088070BD30
:100BE0001A04024010B51948008840F080001749E7
:100BF00008800846008840F04000088000F086F831
:100C000012480838006800F0800008B9002010BDC4
:100C10000E48801C008840F080000C49891C088028
:100C200000F074F809480838006800F0800008B146
:100C30000020ECE70548801C008840F08000034954
:100C4000891C088000F062F80120E0E718040240E7
:100C500010B51248008840F040001049088000F0AC
:100C600055F80E48008840F080000C49088000F0DC
:100C70004DF80A48801E008840F040000749891E50
:100C8000088000F043F80548801E008840F080008E
:100C90000249891E088000F039F810BD1A0402408C
:100CA00010B51948008840F040001749088000F04E
:100CB0002DF81548801E008840F080001249891EDA
:100CC000088000F023F81048801E008840F04000A3
:100CD0000D49891E088000F019F80B480A38006891
:100CE00000F0800038B10848008840F04000064914
:100CF0000880002010BD0448008840F040000249F0
:100D000008800120F6E700001A04024008B5072019
:100D1000009002E00098401E009000980028F9D151
:100D200008BD000070B5044603F032F9C5B20222D6
:100D30003721682002F0FEFE0A20FFF718FEF5B901
:100D4000782003F0F1FE782003F008F8642003F027
:100D500091FE01F0D1FF0A4802F068FF064602F05A
:100D600025FA40F2731001F06FFE642002F04EF994
:100D7000012C01D103F0CCFF012003F077FD70BD01
:100D80008400002070B5002100230F22C4781CB31A
:100D9000174C246804F4E064C4F5E064C4F307214C
:100DA000C1F10404E3B20A4144789C40E1B2847882
:100DB000144021430C07210E0E4C05786155047830
:100DC00004F01F050124AC4005786D11AD0005F15C
:100DD000E025C5F8004109E0047804F01F0501246E
:100DE000AC40054D0678761145F8264070BD0000F0
:100DF0000CED00E000E400E080E100E00249014386
:100E0000024A1160704700000000FA050CED00E096
:100E100029B1064A12680243044B1A6004E0034AEF
:100E200012688243014B1A6070470000303802405C
:100E300029B1064A12680243044B1A6004E0034ACF
:100E400012688243014B1A60704700004438024028
:100E5000F0B5002100220024022500260223324F93
:100E60003F6807F00C0121B1042905D0082937D1CA
:100E700005E02E4F076036E02D4F076033E02A4F24
:100E80003F1F3F68C7F38056274F3F1F3F6807F05B
:100E90003F036EB1264FB7FBF3F7DFF88CC0ACF120
:100EA000040CDCF800C0CCF3881C07FB0CF40CE04D
:100EB0001E4FB7FBF3F7DFF870C0ACF1040CDCF8A1
:100EC00000C0CCF3881C07FB0CF4174F3F1F3F6892
:100ED000C7F301477F1C7D00B4FBF5F7076002E014
:100EE000124F076000BF00BF0F4F3F6807F0F001CF
:100EF0000909104F7A5C0768D74047600A4F3F687E
:100F000007F4E051890A0B4F7A5C4768D740876045
:100F1000054F3F6807F46041490B064F7A5C47680C
:100F2000D740C760F0BD0000083802400024F4003C
:100F300000127A00000000200CB500200190009003
:100F40003448006840F480303249086000BF3148BE
:100F5000006800F4003000900198401C0190009857
:100F600018B90198B0F5A04FF1D12A48006800F4F3
:100F7000003010B10120009001E0002000900098A6
:100F8000012846D123484030006840F08050214974
:100F9000403108602048006840F440401E49086025
:100FA0001C48083000681B49083108600846006882
:100FB00040F4004008600846006840F4A050086013
:100FC0001648091F0860081F006840F08070091F5C
:100FD000086000BF0F48006800F000700028F9D0DA
:100FE00040F205700E4908600A480830006820F099
:100FF00003000849083108600846006840F0020014
:10100000086000BF03480830006800F00C000828A2
:10101000F8D10CBD00380240007000400854400771
:10102000003C024010B51548006840F470001349B8
:1010300008601348006840F0010011490860002072
:101040000F49083108600E4800680E4908400C49F5
:1010500008600D48091D0860081F006820F4802002
:10106000091F0860002006490C310860FFF764FF83
:101070004FF0006001498039086010BD88ED00E044
:1010800000380240FFFFF6FE1030002400B585B0A6
:1010900000F038F801211020FFF7CAFE4FF4E130CC
:1010A00001900020ADF80800ADF80A00ADF80C0082
:1010B000ADF810000C20ADF80E0001A9104800F0AA
:1010C0007DF8012240F225510D4800F052F801212F
:1010D0000B4800F035F84FF4A060FFF78FFE252095
:1010E0008DF8000001208DF8010000208DF802002D
:1010F00001208DF803006846FFF744FE05B000BDEF
:10110000001001401CB501210846FFF781FE4FF495
:10111000C060009002208DF804008DF8050069463B
:101120000648FFF734FC072209210448FFF777FC43
:1011300007220A210148FFF772FC1CBD0000024093
:1011400021B1828942F40052828104E082894DF605
:10115000FF731A408281704702460020B1F5007F7C
:1011600000D100BF13880B400BB1012000E000202C
:101170007047F0B50346002400260025002040F605
:101180006A17B94200D100BF1846C1F3421401F0FA
:101190001F06012707FA06F5012C01D10C3004E0E7
:1011A000022C01D1103000E014301AB107682F432F
:1011B000076002E00768AF430760F0BD2DE9FF4715
:1011C00005460E460024A14600BFA046B08900B1E6
:1011D00000BF2C8A24F44054F08804432C82AC894C
:1011E00041F20C608443B088318908437189084317
:1011F0000443AC81AC8A24F44074B0890443AC82CB
:101200006846FFF725FE2048854202D01F488542E8
:1012100002D1DDF80C9001E0DDF80890A88900F417
:10122000004040B109EBC90000EB091031684900EA
:10123000B0FBF1F707E009EBC90000EB09103168DA
:101240008900B0FBF1F76420B7FBF0F0040120093E
:10125000642101FB1078A88900F4004040B13220DD
:1012600000EBC800B0FBF1F000F00700044308E019
:10127000322000EB08106421B0FBF1F000F00F0009
:1012800004432C81BDE8FF87001001400014014099
:10129000C1F308028280704710B52DED0A8B012240
:1012A0000A210C2002F046FC0A20FFF760FB3D4BB0
:1012B000012203210C2002F001FC3A4B5B1C0122AD
:1012C00004210C2002F0FAFB3648007835494978B1
:1012D00040EA012000B234490880324B9B1C0122B5
:1012E00005210C2002F0EAFB2E4BDB1C012206211B
:1012F0000C2002F0E3FB2B4880782A49C97840EAA9
:10130000012000B229490880264B1B1D012207211C
:101310000C2002F065FC234B5B1D012208210C20F0
:1013200002F05EFC1F4800791E49497940EA01201D
:1013300000B21F4908801D49098808B2FFF7A9F8C3
:1013400041EC1B0B1848B0F90000FFF7A2F841EC84
:101350001C0BB0EE4B1AF0EE6B1AB0EE4C0AF0EE2E
:101360006C0A00F0F1FCB0EE40AAF0EE60AA9FED2E
:10137000110B53EC102B51EC1A0BFFF718F841EC42
:10138000190B9FED0E0B53EC102BFEF769FF41EC90
:10139000180BFFF78FF800B20A490880BDEC0A8BE2
:1013A00010BD0000A8000020580000205A000020B6
:1013B0005C000020775AF01ADCA54C4000000000C9
:1013C000008066404800002000B52DED0A8B83B0F8
:1013D000A548A649A64BA74ACDE90010A649A748AB
:1013E00001F096FCA148008800F4807000287DD0B0
:1013F000A04890ED000AB8EEC00ADFEDA10A80EE29
:10140000201AA04880ED001A9A4890ED010AB8EE23
:10141000C00ADFED9B0A80EE201A9B4880ED001A7F
:10142000944890ED020AB8EEC00ADFED950A80EE0E
:10143000201A964880ED001A8E4890ED030AB8EE07
:10144000C00ADFED8F0A80EE201A914880ED001A65
:101450008D4890ED000AF8EE000A20EE200A8C4834
:10146000D0ED000A20EE200A8648D0ED000AB0EE4A
:10147000001A60EE810A854890ED001A00EE810A9C
:1014800010EE101A0846FFF734F841EC1B0BB0EED3
:101490004B0AF0EE6B0A00F03BF9B0EE40AAF0EE1A
:1014A00060AA9FED7C0B53EC102B51EC1A0BFEF74E
:1014B0007EFF41EC190B9FED790B53EC102BFEF7DF
:1014C000CFFE41EC180BFFF727F8764908606E480D
:1014D00090ED000AF8EE000A20EE200AD0ED000A96
:1014E00020EE200A6948D0ED000A00E0BAE0B0EE34
:1014F000001A60EE810A90ED001A00EEC10AF7EEC4
:10150000000A30EE200A10EE101A0846FEF7F1FF2E
:1015100041EC1B0B5D4890ED000AF0EE000A20EE56
:10152000200A5B48D0ED000A20EE200A5548D0ED95
:10153000000AB0EE001A60EE810A534890ED001ADE
:1015400000EE810A10EE101A0846FEF7D2FF41ECB9
:101550001C0BB0EE4B1AF0EE6B1AB0EE4C0AF0EE2C
:101560006C0A00F0F1FBB0EE40AAF0EE60AA9FED2D
:10157000490B53EC102B51EC1A0BFEF718FF41EC02
:10158000190B9FED490B53EC102BFEF769FE41EC54
:10159000180BFEF7C1FF464908603A4890ED000A73
:1015A00020EE000A3848D0ED000A90ED001A00EE57
:1015B000810A3648D0ED000A90ED001A00EEC10A0B
:1015C0003348D0ED000A90ED001A00EEC10A10EE8B
:1015D000101A0846FEF78DFF41EC1B0B2A4890EDD0
:1015E000000A2A48D0ED000A20EE200A2548D0ED56
:1015F000000A274890ED001A00EE810AF0EE000A7A
:1016000020EE200A10EE101A0846FEF772FF41EC99
:101610001C0BB0EE4B1AF0EE6B1AB0EE4C0AF0EE6B
:101620006C0A00F091FBB0EE40AAF0EE60AA9FEDCC
:10163000190B53EC102B51EC1A0BFEF7B8FE41ECD2
:10164000190B9FED1C0B53EC102BFEF709FE41EC20
:10165000180BFEF761FF19490860002003B0BDECCC
:101660000A8B00BD0120F9E7720000207000002005
:1016700060000020B40000206A0000206400002008
:101680000000804E74000020780000207C000020C4
:10169000800000206666666666A64C40000000007A
:1016A0000000F03F4C00002000000000000000C0DF
:1016B0005000002000000000000000005400002046
:1016C0000FB4054B10B503A9044A029800F0ACFD15
:1016D00010BC5DF814FB0000F935000890000020F4
:1016E00003B401984100009850EAC12018BF0420BB
:1016F0004A0D18BF40F0010040F2FF72B2EB515F9B
:1017000008BF40F00200012808BF052002B0704762
:1017100070B5C1482DED020B2DED0E8B82B0119DE1
:1017200025F000449FEDBEDB9FEDBFEB84423EDB26
:10173000A4F140511098A1F17F6108430FD0BC483B
:10174000844202DC28D1109830B39DED100B02B01A
:10175000BDEC0E8B02B0BDE8704000F069BC9DEDA1
:10176000100B53EC1D2B51EC100BFEF720FE9DEDE2
:10177000100B41EC180B53EC1E2B51EC100BFEF729
:1017800016FE53EC182BFEF76BFD41EC100B02B06C
:10179000BDEC0E8B02B070BD012000F08DFC02B0DC
:1017A000BDEC0E8B02B0BDE8704000F055BCA14806
:1017B0009FEDA18B844256DA9DED100BB4F1795F59
:1017C0000ADA51EC100BFFF78BFF042808BF00F07A
:1017D00053FC9DED100BDAE753EC102B51EC100B82
:1017E000FEF7E5FD41EC190B95480621B0EE490ADC
:1017F000F0EE690A784400F09FFB53EC192B51EC92
:10180000100BFEF7D4FD41EC1A0B8E48B0EE490ADE
:10181000F0EE690A0421784400F08EFB53EC192B9A
:1018200051EC100BFEF7C3FD53EC182BFEF718FD1F
:1018300041EC100B51EC1A0B53EC102BFEF794FFFC
:10184000CDE900019DED000B53EC102B9DED100B2D
:1018500051EC100BFEF7ABFD9DED101B53EC112B63
:10186000FEF7FEFCD2E09DED100B51EC100B01F0E9
:10187000B7FE53EC182BFEF797FD9FED730BCDE9E8
:10188000000153EC102B9DED000B51EC100BFEF7FB
:101890008EFD41EC190B6E480621B0EE490AF0EEC0
:1018A000690A784400F048FB53EC192B51EC100BFB
:1018B000FEF77DFD41EC1B0B6648B0EE490AF0EEE9
:1018C000690A0421784400F037FB53EC192B51ECE2
:1018D000100BFEF76CFD53EC182BFEF7C1FC41EC2E
:1018E0001C0B51EC190B03F0D1FB41EC180B5A48BF
:1018F0009FED5BABA04222DC53EC1C2B51EC1B0B8D
:10190000FEF732FFCDE900019DED000B51EC180B05
:1019100053EC102BFEF74BFD53EC182BFEF7A0FCFD
:1019200053EC1A2BFEF743FD53EC1D2BFEF739FD4C
:1019300053EC1E2BFEF738FD41EC100B5FE08DEDF4
:10194000008B002000909DED000B51EC180B53EC28
:10195000102BFEF785FC9DED000B41EC1E0B53ECAC
:10196000102B51EC100BFEF722FD53EC192BFEF758
:101970001BFD53EC1E2BFEF7F7FE41EC190B53EC4D
:101980001C2B51EC1B0BFEF7EFFE41EC1B0B53EC39
:101990001A2B51EC190BFEF70AFD53EC1D2BFEF729
:1019A00003FD41EC190B53EC1A2B51EC180BFEF70D
:1019B000FEFC53EC1B2BFEF7FAFC53EC192BFEF745
:1019C000F0FC9DED000B41EC180B53EC1A2B51EC85
:1019D000100BFEF7ECFC9FED249B53EC192BFEF74C
:1019E000E3FC41EC100B51EC180B53EC102BFEF701
:1019F000D8FC53EC192BFEF7D7FC41EC100B002D53
:101A00003FF7C5AE51EC100B81F0004141EC100BDB
:101A1000BDE60000000000000000F03F00000000F4
:101A2000075C143326A6913C182D4454FB21F93F42
:101A30000000F07F0000E03F000000000000F03FE9
:101A4000604500006E450000000000000000E03F1F
:101A5000B2440000C04400003333EF3F00000000F8
:101A60000000000000000040182D4454FB21E93F15
:101A700070B59B482DED020B2DED068B079D25F0D3
:101A80000044A04218DC9748844202DC0AD1069840
:101A900040B19DED060BBDEC068B02B0BDE8704079
:101AA00000F0C6BA002DCCBF9FED8F0B9FED900BC1
:101AB000BDEC068B02B070BD8F48A04215DD8F488B
:101AC000A042D8BF4FF0FF3458DD9DED060B51EC1E
:101AD000100BFFF705FE042808BF00F0CDFA9DEDBE
:101AE000060BBDEC068B02B070BD9DED060B51ECF4
:101AF000100B01F075FDCDE9060181489FED828B49
:101B0000A0423CDD8248A0421FDD00249FED82AB55
:101B10009DED060B53EC1A2B51EC100BFEF7A0FBBE
:101B20009DED060B41EC190B53EC1A2B51EC100BED
:101B3000FEF73DFC53EC182BFEF733FC53EC192B4E
:101B4000FEF712FECDE9060149E09DED060B0124EA
:101B500053EC182B51EC100BFEF782FB9DED060B9E
:101B600041EC190B53EC182B51EC100BFEF719FC40
:101B700053EC192BFEF7F8FDCDE906012FE068487C
:101B8000A0421FDD02249FED689B9DED060B53ECE8
:101B9000192B51EC100BFEF70AFC53EC182BFEF737
:101BA0005FFB9DED060B41EC180B53EC192B51EC30
:101BB000100BFEF7F6FB53EC182BFEF7D5FDCDE925
:101BC00006010CE09DED060B032453EC102B9FED5A
:101BD000580B51EC100BFEF7C7FDCDE906019DED4A
:101BE000060B53EC102B51EC100BFEF7E0FB41EC15
:101BF000180B53EC182BFEF7DAFB41EC190B4E488F
:101C00000621B0EE490AF0EE690A784400F094F932
:101C100053EC182B51EC100BFEF7C9FB41EC180BE1
:101C20004648B0EE490AF0EE690A0521784400F012
:101C300083F953EC192B51EC100BFEF7B8FB41EC78
:101C4000100B51EC180B53EC102B002C0EDAFEF796
:101C500007FB9DED061B53EC112BFEF7A8FB9DED3A
:101C6000061B53EC112BFEF79FFB35E0FEF7F8FA4D
:101C70009DED061B53EC112BFEF799FB41EC100B6D
:101C80002F48784400EBC40090ED001B51EC100B82
:101C900053EC112BFEF785FB9DED061B53EC112B2E
:101CA000FEF77FFB41EC100B2648784400EBC400A4
:101CB00090ED001B51EC100B53EC112BFEF774FB55
:101CC00041EC100B002DA2BFBDEC068B02B070BD25
:101CD00051EC100B81F0004141EC100B01E70000CA
:101CE000000010440000F07F182D4454FB21F93F00
:101CF000182D4454FB21F9BF0000DC3F0000203EBA
:101D00000000F33F00000000000000000000F03F72
:101D10000000E63F0000000000000000000000405E
:101D20000080034000000000000000000000F83FB9
:101D3000000000000000F0BF02420000B8410000B7
:101D400042410000FA40000070B56B4E2DED040BCF
:101D50002DED028B82B0DDF81CC0DDE905235C426D
:101D60002CF000411C4341EAD474049D22F0004051
:101D7000B44205D86C422C4340EAD474B4420BD927
:101D80009DED061B9DED040B02B0BDEC028B04B073
:101D9000BDE8704000F056B9ACF14054A4F17F6446
:101DA0001C430BD0022404EAAC7444EAD274054309
:101DB0009FED538B9FED542B07D015E09DED040B49
:101DC00051EC100B00F0C7FD42E0002C11BF012CBC
:101DD0009DED040B02B0BDEC028B04BF04B070BDDE
:101DE000022C38D0032C3BD00B439FED491B9FEDB9
:101DF0004A0B0AD0B14218D1B04209D121F080413A
:101E000020F08040079105900FE0002A15DA10E0DD
:101E1000434B7B44002C08BF93ED000B0DD0012CED
:101E200010D0022C17D0032C1AD0B0421DD1002A9A
:101E300003DAB0EE410AF0EE610A02B0BDEC028BAB
:101E400004B070BD93ED000B51EC100B81F000411C
:101E500041EC100BF1E7B0EE480AF0EE680AECE74F
:101E6000B0EE420AF0EE620AE7E7401A00153C289D
:101E7000C8BF8DED000B19DCBCF1000FBEBF10F127
:101E80003C0F9FED290B8DED000B0FDB9DED060B3D
:101E900053EC102B9DED040B51EC100BFEF764FC82
:101EA00001F09EFB00F057FDCDE90001002C08BFBA
:101EB0009DED000BC1D0012C10D0022C9FED1C0B0E
:101EC00053EC102B9DED000B51EC100B0DD0FEF7D9
:101ED00068FA53EC182BFEF764FAB9E7019880F022
:101EE000004001909DED000BA7E7FEF75AFA53EC76
:101EF000182BFEF759FAABE70000F07F0000000056
:101F0000182D4454FB210940182D4454FB2109C0CD
:101F1000182D4454FB21F9BF182D4454FB21F93FDF
:101F20002A40000000000000000000000000000047
:101F3000075C143326A6A13C70B504462DED028B38
:101F40004D1E00EBC500B0EE408AF0EE608A90EDC9
:101F5000000B35F0060017D053EC182B51EC100B8A
:101F6000FEF725FA41EC100B6D1E04EBC50090ED59
:101F7000001B51EC100B53EC112BFEF771F941ECE7
:101F8000100B35F00600E7D1022D36D0042D1CD001
:101F9000062D1CBFBDEC028B70BD53EC182B51EC11
:101FA000100BFEF704FA94ED0A1B53EC112BFEF70D
:101FB00057F953EC182BFEF7FAF994ED081B53EC84
:101FC000112BFEF74DF941EC100B53EC182B51EC93
:101FD000100BFEF7ECF994ED061B53EC112BFEF7FA
:101FE0003FF953EC182BFEF7E2F994ED040B53EC98
:101FF000102BFEF735F941EC100B53EC182B51EC7C
:10200000100BFEF7D4F994ED021B53EC112BFEF7E5
:1020100027F953EC182BFEF7CAF994ED001B53EC8B
:10202000112BFEF71DF9BDEC028B41EC100B70BDBE
:1020300010B553EC102B51EC100BFEF711F941ECDD
:10204000100B10BD10B553EC112B51EC100BFEF71B
:1020500007F941EC100B10BD9FED050B10B553ECCB
:10206000102B51EC100BFEF77FFB41EC100B10BD59
:1020700000000000000000009FED050B10B553ECC0
:10208000102B51EC100BFEF792F941EC100B10BD28
:10209000000000000000001002E008C8121F08C184
:1020A000002AFAD170477047002001E001C1121FD9
:1020B000002AFBD17047000001490860704700000A
:1020C000940000202DE9FF5FDDE90220010DDDF81D
:1020D00038B0024318D044F61050A1F2FF3141430A
:1020E0000D140F98012820D0A5EB0B00401C5FEACF
:1020F000000A4FF00004474EDFF81C91A0465046FE
:1021000016D5CAF1000728E00F98012443A2012840
:1021100008D0002100980F9BC0E90021C0E90243CC
:10212000BDE8FF9F6FEA0B01F4E7CBF10000DEE7AB
:10213000074612E0F80707D0224633464046494694
:10214000FEF735F980468946224633461046194641
:10215000FEF72DF904460E467F10002FEAD1DDE987
:102160000201BAF1000F42464B4602DAFEF71FF9B0
:1021700001E0FEF7F9FA04460E460022284BFEF76E
:102180007BFB03D84FF0FF30014607E00022254BD0
:1021900020463146FEF764F8FEF755FB102409E0AF
:1021A000002C0ADB0A220023FEF7E8F9019B3032FB
:1021B0001A55641E50EA0102F2D1641C019AC4F15E
:1021C000110314440F9A012A03D0012208430DD1B0
:1021D0000AE0084304D000204FF0110B0F9080E775
:1021E000A3EB0B056D1E0DE05B4504DD4FF0000217
:1021F00005F1010504E003DA4FF00002A5F1010545
:10220000002AECD000980F99C0E90231C0E90045DE
:1022100086E70000000024400000F03F300000008E
:102220000000F0430000E03F2DE9FF4F95B09B46D2
:102230008946064600250FE2252877D10024274647
:10224000F84A0121059400E0044316F8013F203BC1
:1022500001FA03F01042F7D130782A2811D06FF03C
:102260002F033078A0F13002092A16D8059A44F0DD
:10227000020402EB820203EB42021044761C05903A
:10228000EFE759F8042B0592002A03DA504244F490
:102290000054059044F00204761C30782E2816D1A4
:1022A00016F8010F44F004042A280DD06FF02F0215
:1022B0003078A0F13003092B09D807EB870302EB34
:1022C0004303C718761CF3E759F8047B761C307873
:1022D0006C280FD006DC4C2817D068280DD06A284F
:1022E00014D104E0742810D07A280FD10DE044F402
:1022F00000140AE044F4801401E044F440147278BD
:10230000824202D104F58014761C761C307866284F
:102310000BD013DC582877D009DC002875D045286D
:10232000F6D04628F4D047281AD19DE118E063285A
:1023300035D0642879D0652812D195E1702873D002
:1023400008DC6728F1D069286FD06E280DD06F287F
:1023500006D1B5E073282CD0752875D0782874D0B4
:102360005A46179990476D1C75E1C4F30250022834
:1023700009D003280DD0D9F8001004280DD00D6025
:1023800009F1040967E1D9F80010EA17C1E9005220
:10239000F6E7D9F800100D80F2E70D70F0E719F8B4
:1023A000041B8DF8001000208DF80100EA46012082
:1023B00003E059F804AB4FF0FF3061074FF0000124
:1023C00002D40DE008F101018846B9420FDA8045D8
:1023D000F8DB1AF808100029F4D108E008F101012F
:1023E00088468142FADB1AF808100029F6D10598D0
:1023F0005B46A0EB080721463846179A00F094FA8E
:10240000284400EB080507E04DE029E10DE01AF84B
:10241000010B5A4617999047B8F10108F7D25B466D
:1024200021463846179A13E142E00A220092C4F38B
:1024300002524FF0000A022A08D059F804CB032AAE
:102440004FEAEC710AD00DE029E02AE009F107011A
:1024500021F00702F2E802C1914609E00FFA8CFC74
:102460004FEAEC71042A03D14FFA8CFC4FEAEC716D
:10247000002907DA0A460021DCF1000C61EB0201B9
:102480002D2202E0220504D52B228DF80420012202
:1024900003E0E20701D02022F7E7904659E00A2145
:1024A00002E010220DE010214FF0000A00910BE035
:1024B00010224FF0000A44F004040827009203E0C1
:1024C00008224FF0000A0092C4F30252022A05D0FB
:1024D00059F804CB0021032A08D009E009F10701CB
:1024E00021F00702F2E802C1914605E01FFA8CFCD8
:1024F000042A01D10CF0FF0C4FF00008220728D568
:10250000702806D0009B83F0100353EA0A0305D01D
:102510000EE040228DF80420012208E05CEA01026E
:1025200006D030228DF804208DF805000222904656
:10253000009B83F0080353EA0A030AD15CEA010214
:1025400001D1620705D530228DF804204FF0010833
:102550007F1E582804D034A003900EA802900DE0EE
:1025600036A0F9E753466046009AFEF707F884461E
:102570000398825C0298401E029002705CEA01009F
:10258000F0D1029806A9081A00F1200A600702D5C6
:1025900024F4803400E00127574502DDA7EB0A0050
:1025A00000E0002000EB0A01009005984144401A29
:1025B0000590E00306D45B462146179A059800F083
:1025C000B3F90544002706E001A85A46C05D1799F3
:1025D00090476D1C7F1C4745F6DBE0030CD55B463E
:1025E0002146179A059800F09FF9054404E0302031
:1025F0005A46179990476D1C0099481E0090002973
:10260000F5DC08E0029802995A460078491C0291CC
:10261000179990476D1CBAF10001AAF1010AF1DC8B
:1026200065E1000009280100303132333435363796
:10263000383961626364656600000000303132330E
:1026400034353637383941424344454600000000AE
:1026500000F058F90544761C307800287FF4ECAD82
:1026600019B02846BDE8F08F620700D4062709F1AB
:10267000070222F0070CFCE80223E14603F00048C1
:102680005FEA080C02D00FF2702C0DE05FEA045CE8
:1026900002D50FF2682C07E05FEAC47C02D00FF28B
:1026A000602C01E0AFF2700C4FF0FF3823F00043D4
:1026B000CDF850C065280CD006DC452809D0462846
:1026C0001DD047283DD13DE0662818D067287ED12F
:1026D00038E00021112F01DB112000E0781CCDE94A
:1026E000000106A90EA8FFF7EDFCDDE90F010E9A27
:1026F00003910021009207F1010A04914DE04FF08F
:1027000000400097CDE9011006A90EA8FFF7DAFCFA
:10271000DDE90F0203920E9B11990022DDF80CA057
:102720000093049211B9791C00EB010AB7EB0A007F
:1027300004D4C0F1FF3007F1010A0490AAEB0700AE
:10274000019044E0012F00DA01270021112F01DD63
:10275000112000E03846CDE9000106A90EA8FFF7D8
:10276000B1FCDDE90F010E9A039100210491009262
:10277000BA4621070CD40399514500DA8A46BAF1CA
:10278000010F05DD009AAAF10101515C302908D042
:10279000B84202DA10F1040F06DA0121CDE9011086
:1027A00015E0AAF10101E9E7002805DC04990144DC
:1027B0000491AAEB000102E0411C514500DD8A466C
:1027C0000499401A401C01904FF0004002902007ED
:1027D00004D40198504501DBCDF8048000208DF829
:1027E0004F0002980DF14F07B0F1004F25D02B207C
:1027F0000E9002984FF0020800280CDA4042029036
:102800002D200E9007E00A210298FDF7A1FE30313D
:10281000029007F8011DB8F10001A8F10108F2DCEF
:1028200002980028EFD1791E0E980870307800F0D9
:10283000200040F0450007F8020D12A8C01B00F16F
:1028400007081498007800B1012000EB0A010198F4
:1028500001EBE07105984144401A401E0590E003E9
:1028600006D45B462146179A059800F05DF80544AA
:102870001498007818B15A46179990476D1CE003D8
:1028800024D55B462146179A059800F04DF805447B
:102890001CE00498002807DBDDE90301884203DD22
:1028A0000098405C179901E0179930205A469047EC
:1028B000049805F10105401C04900198401E019008
:1028C00004D12E205A46179990476D1CBAF1000189
:1028D000AAF1010ADDDC05E017F8010B5A46179949
:1028E00090476D1CB8F10001A8F10108F4DC5B46CB
:1028F0002146179A0598ABE62D0000002B0000003A
:10290000200000002DE9F041044600251E46174630
:10291000880404D405E039462020B0476D1C641EAD
:10292000F9D52846BDE8F0812DE9F041044600259F
:102930001E469046C80301D5302700E020278804B2
:1029400004D505E041463846B0476D1C641EF9D5F4
:102950002846BDE8F08110B541EC100BFFF788F870
:1029600051EC100B10BD00002DE9F0410446E07859
:1029700000F0C006E07800F03F05607800F001004C
:1029800098B1EF102846E91705EB5171C910A5EB76
:10299000C101491C01F0FF080B48006820B10A483A
:1029A000414602683846904700BF607800F0080052
:1029B00030B10548406818B1B011034A51688847E2
:1029C0000020BDE8F0810000980000200146C1EB26
:1029D000C10202EB42024FF47A735A434FF0E023F4
:1029E0005A6100229A6101221A6100BF4FF0E02271
:1029F000106900F001021AB100F48032002AF5D00B
:102A000000224FF0E0235A619A61704738B50446BE
:102A100064B120208DF8000028208DF801003020BE
:102A20008DF8020038208DF8030004E0A322042171
:102A30006846FDF7F6FB6A46042140F69E2002F048
:102A400027F901F0C1FC38BD3EB5044602208DF8DF
:102A50000000CA208DF80100E3208DF80200092053
:102A60008DF803006A460421682002F011F9A320C2
:102A70008DF8000004F0400048B1C0208DF801003E
:102A8000C8208DF80200C2208DF8030006E0A320C4
:102A90008DF801008DF802008DF8030004F4C07079
:102AA00048B1C4208DF80400CC208DF80500C62064
:102AB0008DF8060006E0A3208DF804008DF80500CF
:102AC0008DF80600A3208DF807008DF808008DF81A
:102AD00009006A460A2140F6A72002F0D9F804F05E
:102AE000030018B120208DF8000002E0D8208DF8F6
:102AF00000006A46012140F6B62002F0C9F804F051
:102B0000200018B1012000F0ADF802E0002000F034
:102B1000A9F804F4C07008B304F4807060B1B22066
:102B20008DF800008B208DF80100B6208DF8020092
:102B30009B208DF803000BE0B0208DF80000802072
:102B40008DF80100B4208DF8020090208DF803006C
:102B50006A46042140F6A22002F09AF804F001002F
:102B600020B3F8208DF800006A4601214FF40B6075
:102B700002F08EF8FA21072000F02CFC072000F06C
:102B8000F3FB012000F013FC642000F003FD4FF480
:102B9000FA7000F012FDC821304800F0A3FB282095
:102BA00000F0BCFB0A2000F0CCFB08E0D8208DF838
:102BB00000006A4601214FF40B6002F069F804F04E
:102BC000020018B1D9208DF8000002E0D8208DF85D
:102BD00000006A46012140F23D7002F059F804F00D
:102BE000040018B1012000F069F802E0002000F0B4
:102BF00065F804F0100018B10120FFF707FF02E0AC
:102C00000020FFF703FF44F008001549488101F058
:102C1000DBFB00201249887304F0400018B108461D
:102C2000807B801D887304F4C07020B10C48807BC9
:102C3000801D0B49887304F0140020B10848807B84
:102C400010300749887304F0030020B10448807BEA
:102C5000001D0349887300203EBD000009E3CA023D
:102C6000980000203EB504466CB10EA1D1E90020C9
:102C70008968CDE9002002916A4609214FF49760E6
:102C800002F006F83EBD0AA2D2E900109268CDE932
:102C9000010200916A4609214FF4976001F0F8FFA4
:102CA000F0E70000B8AAB38DB4980D355D000000C0
:102CB000B8AAAAAAB088C3C5C700000038B50446A0
:102CC00064B1C0208DF80000C2208DF80100C4203E
:102CD0008DF80200C6208DF8030004E08B22042149
:102CE0006846FDF79EFA6A46042140F6982001F0F6
:102CF000CFFF01F069FB38BD10B5C8234FF48062E7
:102D0000024940F6F63001F0D5F910BD5C510008DB
:102D10002DE9F04F8DB00746884615469946DDE906
:102D2000166B0024002030806B49887B5A4605A929
:102D300001F0AAFA18B1601E0DB0BDE8F08F664828
:102D4000807A00F01400002867D09DF81400000677
:102D50009DF8151040EA01409DF8161040EA012048
:102D60009DF81710084328609DF8180000069DF88C
:102D7000191040EA01409DF81A1040EA01209DF820
:102D80001B10084368609DF81C0000069DF81D108C
:102D900040EA01409DF81E1040EA01209DF81F10F6
:102DA0000843A8609DF8200000069DF8211040EA25
:102DB00001409DF8221040EA01209DF823100843AD
:102DC000E86004F11000C4B228680014019068683B
:102DD00000140290A86800140390E868001404909E
:102DE00001984043029901FB0100039901FB010096
:102DF000049901FB010ABAF1706F02DBBAF1885F36
:102E000005DD01F0E1FA00203080401E94E7B6F9BC
:102E1000000040F48070308000BF2F48807A00F0BE
:102E2000400020B305A9601C085C095D40EA012050
:102E300000B2A8F8000005A9E01C095C05AAA01CC6
:102E4000105C41EA002000B2A8F8020005A9601D4C
:102E5000095C201D105C41EA002000B2A8F80400C3
:102E6000A01DC4B2B6F9000040F0080030801A4836
:102E7000408900F4C07008B305A9601C085C095DB6
:102E800040EA012000B2388005A9E01C095C05AACF
:102E9000A01C105C41EA002000B2788005A9601DEA
:102EA000095C201D105C41EA002000B2B880A01D22
:102EB000C4B2B6F9000040F0700030800648807A55
:102EC00000F0030018B105A90819FFF74DFD4846A9
:102ED00000F0A4FB00202FE79800002070B588B018
:102EE000064601A800F098FFBDF804000021C903C0
:102EF00041EA5045C4034448007A00F0030056F804
:102F0000200005904048007A00F0040010B10598B8
:102F1000404205903C48007AC0F3C10056F82000BA
:102F200006903948007A00F0200010B1069840421F
:102F300006903548007AC0F3811056F820000790BB
:102F40003148008900F4807010B107984042079022
:102F50000598C117A0FB042301FB043100FB0510F9
:102F6000810041EA927005900698C117A0FB0423E6
:102F700001FB043100FB0510810041EA92700690CC
:102F80000798C117A0FB042301FB043100FB0510C7
:102F9000810041EA927007900598000E8DF80800B4
:102FA0000598000C8DF809000598000A8DF80A00B4
:102FB0000598C0B28DF80B000698000E8DF80C0035
:102FC0000698000C8DF80D000698000A8DF80E008A
:102FD0000698C0B28DF80F000798000E8DF810000B
:102FE0000798000C8DF811000798000A8DF8120060
:102FF0000798C0B28DF8130002AA0C214FF4257077
:1030000001F046FE08B070BD9800002030B585B0D4
:10301000044616A207CA02AB07C3C82C03DD4FF053
:10302000FF3005B030BDC82090FBF4F0401E85B2E3
:10303000280A8DF80000E8B28DF801006A460221E6
:1030400040F2162001F024FE10B14FF0FF30E8E707
:1030500002AA0C2140F6C12001F01AFE10B14FF077
:10306000FF30DEE7044884810020DAE7FEF2ABC4DB
:10307000AAF1DFDFBBAFDFDF980000201FB50446F9
:103080004848007A00F0030054F8200001904548B9
:10309000007A00F0040010B10198404201904148CC
:1030A000007AC0F3C10054F8200002903D48007A35
:1030B00000F0200010B10298404202903948007A96
:1030C000C0F3811054F8200003903648008900F4C2
:1030D000807010B10398404203903349019880FBFF
:1030E0000101800F40EA810001902F49029880FB86
:1030F0000110820042EA917002902B49039880FBF4
:103100000110820042EA917003900198000E8DF840
:1031100000000198000C8DF801000198000A8DF85C
:1031200002000198C0B28DF803006A4604214FF4F2
:10313000747001F0ADFD18B14FF0FF3004B010BD58
:103140000298000E8DF800000298000C8DF8010026
:103150000298000A8DF802000298C0B28DF80300B0
:103160006A4604214FF4757001F092FD10B14FF0E2
:10317000FF30E3E70398000E8DF800000398000C81
:103180008DF801000398000A8DF802000398C0B280
:103190008DF803006A4604214FF4767001F078FD43
:1031A000CCE700009800002009E3CA0210B586B001
:1031B000044647A00068039046A00068029046A01D
:1031C0000068019045A00068009004F0030003A986
:1031D000085C8DF8140003A8C4F3C101405C8DF8AD
:1031E000150003A8C4F38111405C8DF8160004F0AB
:1031F000030002A9085C8DF8100002A8C4F3C10105
:10320000405C8DF8110002A8C4F38111405C8DF878
:10321000120005AA032140F2264001F039FD18B141
:103220004FF0FF3006B010BD04AA032140F22A403F
:1032300001F02EFD10B14FF0FF30F3E7019805903B
:103240000098049004F0040058B19DF8140040F078
:1032500001008DF814009DF8100040F001008DF879
:10326000100004F0200058B19DF8150040F0010056
:103270008DF815009DF8110040F001008DF8110047
:1032800004F4807058B19DF8160040F001008DF8EC
:1032900016009DF8120040F001008DF8120005AAFA
:1032A00003214FF4886001F0F3FC10B14FF0FF30C0
:1032B000B8E704AA032140F2314001F0E9FC10B163
:1032C0004FF0FF30AEE7064804810020AAE7000077
:1032D0004CCD6C000CC92C00365676002646660094
:1032E00098000020F8B505460E464FF47A7095FB1D
:1032F000F0F000FB06F4200E8DF80000200C8DF895
:103300000100200A8DF80200E0B28DF803006A4641
:1033100004214FF4AE7001F0BBFCF8BD38B5044693
:10332000052094FBF0F084B220128DF80000E0B28A
:103330008DF801006A4602214FF4AD7001F0A8FC3F
:1033400038BD38B50446052094FBF0F084B2201255
:103350008DF80000E0B28DF801006A4602214FF4BA
:10336000AC7001F095FC38BD38B5044600200090E3
:1033700004F0010020B19DF8000040F03000009002
:1033800004F0020020B19DF8000040F00C00009015
:1033900004F0040020B19DF8000040F0030000900C
:1033A0006A4601214FF4A47001F072FC38BD38B5B3
:1033B0000446012C01DA012402E0042C00DD04247F
:1033C000601EC0B200906A46012140F24F1001F029
:1033D0005FFC38BDF0B52DED028B83B006460F467D
:1033E00006F0070010B1B7F5C86F05DD4FF0FF30EC
:1033F00003B0BDEC028BF0BD00EE107AB8EE400ACF
:10340000DFED5B0A80EE208A01A800F0DFFC9DF86A
:103410000400022806D0042817D0082828D0102835
:103420004CD138E09FED530A28EE000ABCEEC00AEA
:1034300010EE100A84B29FED500A28EE000ABCEE8E
:10344000C00A10EE100A85B23BE09FED4C0A28EE50
:10345000000ABCEEC00A10EE100A84B29FED480AC2
:1034600028EE000ABCEEC00A10EE100A85B228E071
:103470009FED440A28EE000ABCEEC00A10EE100AC6
:1034800084B29FED410A28EE000ABCEEC00A10EE9D
:10349000100A85B215E09FED3D0A28EE000ABCEE49
:1034A000C00A10EE100A84B29FED390A28EE000A15
:1034B000BCEEC00A10EE100A85B202E04FF0FF30F9
:1034C00096E700BF20128DF80800E0B28DF80900E1
:1034D00028128DF80A00E8B28DF80B0006F0010002
:1034E000A0B102AA02214FF4EA7001F0D1FB10B1A1
:1034F0004FF0FF307CE70DF10A0202214FF4927089
:1035000001F0C6FB10B14FF0FF3071E706F002008A
:10351000A0B102AA02214FF4EC7001F0B9FB10B186
:103520004FF0FF3064E70DF10A0202214FF494706E
:1035300001F0AEFB10B14FF0FF3059E706F0040088
:10354000A0B102AA02214FF4EE7001F0A1FB10B16C
:103550004FF0FF304CE70DF10A0202214FF4967054
:1035600001F096FB10B14FF0FF3041E700203FE73C
:10357000000048430000804600004046000000462E
:103580000000C045000080450000404500000045A7
:103590000000C04438B50446052094FBF0F085B225
:1035A00028128DF80000E8B28DF801006A46022169
:1035B0004FF4EF7001F06CFB38BD38B504460520C0
:1035C00094FBF0F085B228128DF80000E8B28DF877
:1035D00001006A4602214FF4ED7001F059FB38BD3D
:1035E00082B0CDE9000121F0004001909DED000B7B
:1035F00002B051EC100B704770B504460D46E1B2B5
:103600000548FDF745FE00BF40210348FDF7A4FD36
:103610000028F9D0204670BD00100140704700001E
:103620002DE9F04F87B005460C46914601208DF8F4
:10363000100000208DF81100FE4A1268517DFD4AED
:103640005268107804AB022200F0DDFA20B14FF08E
:10365000FF3007B0BDE8F08FC820FFF7B7F90020B2
:103660008DF81000F34A1268517CF24A52681078C3
:1036700004AB012200F0C7FA10B14FF0FF30E8E7C9
:10368000EC4A12685179EB4A5268107804AB012277
:1036900000F0B9FA10B14FF0FF30DAE7E54A1268EE
:1036A000517DE44A5268107804AB012200F0ABFA75
:1036B00010B14FF0FF30CCE7DE4A1268917EDD4A50
:1036C0005268107804AB012200F09DFA10B14FF05F
:1036D000FF30BEE7D74A12681179D64A526810788F
:1036E00004AB012200F08FFA10B14FF0FF30B0E7C9
:1036F0000C208DF81000CF4A12681179CD4A52681B
:10370000107804AB012200F07EFA10B14FF0FF30C8
:103710009FE70F20FFF75AF9C648406B407A8DF8B3
:103720001000C44A12689178C24A5268107804ABFB
:10373000012200F068FA10B14FF0FF3089E7BD4870
:10374000406B007A8DF81000BA4A12685178B94A75
:103750005268107804AB012200F055FA10B14FF016
:10376000FF3076E7B9F1000F07D0B248406B807A9E
:1037700040F0E0008DF8100004E0AE48406B807A25
:103780008DF81000AB4A12689179AA4A52681078F5
:1037900004AB012200F037FA10B14FF0FF3058E7C8
:1037A000B9F1000F07D0A348406BC07A40F0E000A9
:1037B0008DF8100003E0A048C07A8DF810009D4AF3
:1037C0001268D1799B4A5268107804AB012200F04C
:1037D0001AFA10B14FF0FF303BE7B9F1000F02D0F9
:1037E000C820FFF7F3F840208DF81000914A1268C6
:1037F0001179904A5268107804AB012200F003FA64
:1038000010B14FF0FF3024E778208DF81000894A7E
:1038100012685179874A5268107804AB012200F08F
:10382000F2F910B14FF0FF3013E783498889FFF7B1
:10383000CDF800208DF810007E4A126851797D4A3B
:103840005268107804AB012200F0DDF910B14FF09E
:10385000FF30FEE6774A1268117B764A526810788C
:1038600004AB022200F0BCF910B14FF0FF30F0E6DB
:103870009DF811009DF8101040EA012B0C209BFBD5
:10388000F0F0C6B20020A86068602860A0606060A8
:103890002060824665E0674A1268517B654A52683B
:1038A000107804AB0C2200F09BF910B14FF0FF3000
:1038B000CFE69DF811009DF8101040EA012000B2FB
:1038C000ADF808009DF813009DF8121040EA0120A1
:1038D00000B2ADF80A009DF815009DF8141040EAFA
:1038E000012000B2ADF80C00BDF9081020680844B2
:1038F0002060BDF90A10606808446060BDF90C10D2
:10390000A0680844A0609DF817009DF8161040EAD2
:10391000012000B2ADF800009DF819009DF81810C4
:1039200040EA012000B2ADF802009DF81B009DF8AE
:103930001A1040EA012000B2ADF80400BDF90010F1
:10394000286808442860BDF9021068680844686067
:10395000BDF90410A8680844A8600AF1010000F04D
:10396000FF0AB24597DB3448D0F800C02868C11779
:10397000090441EA10410704624600233846FCF777
:103980001FFC32460023CDE90201FCF719FC286038
:103990002948D0F800C06868C117090441EA1041FD
:1039A0000704624600233846FCF70AFC324600232F
:1039B000CDE90201FCF704FC68601F48D0F800C0A4
:1039C000A868C117090441EA1041070462460023B0
:1039D0003846FCF7F5FB32460023CDE90201FCF73F
:1039E000EFFBA8601448D0F804C02168C817000491
:1039F00040EA11480F046246002338464146FCF76E
:103A0000DFFB32460023CDE90201FCF7D9FB206041
:103A10000948D0F804C06068C117090441EA1041A0
:103A20000704624600233846FCF7CAFB32460023EF
:103A300004E000001000002034510008CDE902012C
:103A4000FCF7BEFB60601148D0F804C0A068C11745
:103A5000090441EA10410704624600233846FCF796
:103A6000AFFB32460023CDE90201FCF7A9FBA060C1
:103A7000A068002804DDA068A0F58030A06003E005
:103A8000A06800F58030A0600020E2E53451000815
:103A90001CB501210220FDF7BBF9C02000900120D8
:103AA0008DF804008DF8060002208DF805006946A7
:103AB0000148FCF76CFF1CBD000402402DE9F041F9
:103AC00005460F4614461E46FDF78CF810B9002037
:103AD000BDE8F081002141EA4501C8B2FDF748F890
:103AE000FDF7DEF818B9FDF7B3F80020F0E7384627
:103AF000FDF73EF8FDF7D4F8FDF774F8012101EB6E
:103B00004501C8B2FDF734F8FDF7CAF80CE0FCF740
:103B1000F7FF3070012C02D1FCF7CAFF01E0FCF77F
:103B2000A1FF761C601EC4B2002CF0D1FDF790F806
:103B30000120CDE770B504460D461646FDF752F854
:103B400008B9002070BD002141EA4401C8B2FDF768
:103B50000FF8FDF7A5F818B9FDF77AF80020F1E79E
:103B60002846FDF705F8FDF79BF83046FDF700F80D
:103B7000FDF796F8FDF76CF80120E3E72DE9F04139
:103B800005460E4617469846FDF72CF810B900205A
:103B9000BDE8F081002141EA4501C8B2FCF7E8FF29
:103BA000FDF77EF818B9FDF753F80020F0E730462E
:103BB000FCF7DEFFFDF774F800240BE018F80400B2
:103BC000FCF7D6FFFDF76CF818B9FDF741F80020B7
:103BD000DEE7641CBC42F1DBFDF73AF80120D7E7D1
:103BE0002DE9F04104460D4616461F463B46324637
:103BF00029462046FFF762FF10B10020BDE8F081A2
:103C00004FF0FF30FAE72DE9F04104460D46164625
:103C10001F463B46324629462046FFF7AFFF10B10C
:103C20000020BDE8F0814FF0FF30FAE770B505469F
:103C3000284600F00FF80446E81C00F00BF844EAB0
:103C4000C00084B2A81D00F005F844EA801084B2D8
:103C5000204670BD014691F90020002A01DD0020B8
:103C60001EE091F90020002A01DA042018E091F901
:103C70000120002A01DD012012E091F90120002A33
:103C800001DA05200CE091F90220002A01DD022072
:103C900006E091F90220002A01DA062000E0072060
:103CA000704700002DED028BFDF7F0F9FFF7F0FEF5
:103CB0000A20FEF78BFE0120FDF734F833E0FDF714
:103CC00083FB19A0FDF7FCFC19480068FCF711FC08
:103CD00041EC180B53EC182B16A0FDF7F1FC16A0C5
:103CE000FDF7EEFC16480068FCF703FC41EC180BEE
:103CF00053EC182B0FA0FDF7E3FC12A0FDF7E0FC3E
:103D000012480068FCF7F5FB41EC180B53EC182B3C
:103D100008A0FDF7D5FCFDF7BFFA0D48B0F900107B
:103D20000CA0FDF7CDFCCAE750697463683A000047
:103D30004C00002025662000526F6C6C3A00000099
:103D4000500000205961773A000000005400002024
:103D5000480000204D3A2564200A000070B5044652
:103D6000002624F00104184890F8240008B100202F
:103D700070BD1548807A10B94FF0FF30F8E712484F
:103D8000057C807A2040104908740846007CA042D7
:103D900002D04FF0FF3600E0002614B90A48007D3B
:103DA00018B1012001F000F802E0002000F0FCFF53
:103DB0003CB100F009FB20B1034805744FF0FF301F
:103DC000D6E73046D4E70000100000200146114835
:103DD000407A30B1012807D0022808D003280CD13E
:103DE00008E0022008700BE00420087008E00820BA
:103DF000087005E01020087002E04FF0FF307047B7
:103E000000BF0448C07C18B108784006000E087056
:103E10000020F4E71000002001461348407A30B13A
:103E2000012808D002280AD0032810D10BE04FF453
:103E3000804008800EE041F69C7008800AE04FF454
:103E40008050088006E04FF40060088002E04FF0E8
:103E5000FF30704700BF0448C07C10B10888401094
:103E600008800020F5E7000010000020014602480D
:103E7000007C0870002070471000002001460F48A9
:103E8000007A30B1012807D0022809D003280FD1C9
:103E90000AE0FA2008800EE04FF4FA7008800AE089
:103EA0004FF47A70088006E04FF4FA60088002E070
:103EB0000020088000BF00BF0020704710000020D5
:103EC00001461248007A30B1012809D002280CD0EE
:103ED000032814D10EE09FED0E0A81ED000A11E0D7
:103EE0009FED0C0A81ED000A0CE09FED0B0A81EDBD
:103EF000000A07E09FED090A81ED000A02E04FF099
:103F0000FF30704700BF0020FBE7000010000020DA
:103F100000000343000083423333034233338341C1
:103F200001461248C07A082817D2DFE800F01704CB
:103F3000070A0D101318BC20088013E062200880C7
:103F400010E02A2008800DE0142008800AE00A20F2
:103F5000088007E00520088004E000BF00BF0020C3
:103F6000088000BF00BF0020704700001000002044
:103F70000146064890F8240010B14FF0FF3070471A
:103F80000248C08908800020F9E7000010000020E6
:103F90001CB580208DF80000454A1268517D444AC6
:103FA000526810786B460122FFF72DFE10B14FF0DA
:103FB000FF301CBD6420FEF709FD00208DF80000D5
:103FC0003B4A1268517D3A4A526810786B4601228A
:103FD000FFF719FE10B14FF0FF30EAE748208DF8E7
:103FE0000000334A1268117A314A526810786B46E1
:103FF0000122FFF708FE10B14FF0FF30D9E7FF2193
:104000002B488172FF202A490872FF2128484172FB
:10401000C1724FF6FF71C181FF21017481744FF6A7
:10402000FF7101850121017380F82210002180F8C1
:1040300023104175017516300160416081601638AA
:1040400080F8241080F82510C1844FF4FA6000F045
:1040500055FC10B14FF0FF30ABE7022000F0EEFA54
:1040600010B14FF0FF30A4E72A2000F0C1FC10B1DE
:104070004FF0FF309DE7322000F0FCFC10B14FF014
:10408000FF3096E70020FFF769FE10B14FF0FF30D8
:104090008FE700F0D1FE0A2000F0B8FB10B14FF01E
:1040A000FF3086E7002000F03FFD002081E70000A0
:1040B000100000202DE9F04385B005460E469046DD
:1040C0009946294890F8250020B14FF0FF3005B0FF
:1040D000BDE8F08316B94FF0FF30F8E7002423E085
:1040E000281B102801DD102000E0281B87B23219A0
:1040F0003946204600F0CCFD10B14FF0FF30E6E726
:1041000001AA3946204600F01FF910B14FF0FF30E8
:10411000DDE730193A4601A9FCF795F810B16FF0C8
:104120000100D4E7E01984B2AC42D9DB4FEA282081
:104130008DF8000008F0FF008DF801000A4A1268AF
:10414000517F094A526810786B460222FFF75BFDE7
:1041500010B14FF0FF30BAE70121034880F8251075
:10416000A0F826900020B2E71000002038B50446E1
:10417000282C02DD4FF0FF3038BDDCB9002000F004
:1041800001FC00208DF8000007208DF801003D4A59
:104190001268517D3B4A526810786B460222FFF745
:1041A00032FD10B14FF0FF30E6E7002135480175D0
:1041B0000020E1E7012000F0E5FB012C03D1022003
:1041C0008DF8000033E0022C03D103208DF80000AD
:1041D0002DE0052C03DC04208DF8000027E00A2CDC
:1041E00003DC05208DF8000021E0142C03DC062000
:1041F0008DF800001BE0282C03DC07208DF8000060
:1042000015E0502C03DC08208DF800000FE0A02CF6
:1042100003DC09208DF8000009E0B4F5A07F03DC81
:104220000A208DF8000002E00B208DF80000154AEE
:104230001268517A134A526810786B460122FFF7D0
:10424000E2FC10B14FF0FF3096E720208DF800001F
:104250000C4A1268517D0B4A526810786B46012255
:10426000FFF7D1FC10B14FF0FF3085E7082105487A
:10427000817200210173012101750020FFF76EFD9D
:10428000002079E710000020F8B504460F461646D6
:104290002C4890F8240010B94FF0FF30F8BD2948A1
:1042A000807A10B94FF0FF30F8E7264A1268117B88
:1042B000244A526810786B460222FFF791FC10B135
:1042C0004FF0FF30EAE79DF801009DF8001040EA4A
:1042D0000125A54203DA00203070401EDEE71948B0
:1042E00040684088B5EB600F17DD164A1268D17C34
:1042F000144A526810786B460122FFF771FC10B126
:104300004FF0FF30CAE79DF8000000F0100020B128
:1043100000F05AF86FF00100C0E7E2B2094B1B68E9
:10432000597B084B5B6818783B46FFF759FC10B186
:104330004FF0FF30B2E795FBF4F0401E30700020E4
:10434000ACE7000010000020F8B504460D46164604
:1043500016B94FF0FF30F8BD1A48807A10B94FF007
:10436000FF30F8E720128DF80000E0B28DF8010070
:104370009DF801002844134949684989884202DDB3
:104380004FF0FF30E7E70F4A1268D17E0D4A5268BE
:1043900010786B460222FFF736FC10B14FF0FF3069
:1043A000D9E7EAB2074B1B68197E064B5B681878A1
:1043B0003346FFF715FC10B14FF0FF30CBE700207C
:1043C000C9E700001000002008B57048807A10B9D5
:1043D0004FF0FF3008BD002000906C4A1268517CFD
:1043E0006A4A526810786B460122FFF70CFC10B144
:1043F0004FF0FF30EEE7654A12685179634A526820
:1044000010786B460122FFF7FEFB10B14FF0FF3032
:10441000E0E75E4A126811795C4A526810786B4690
:104420000122FFF7F0FB10B14FF0FF30D2E7574801
:1044300090F82400002853D00C200090534A1268B2
:104440001179524A526810786B460122FFF7DBFB64
:1044500010B14FF0FF30BDE73220FEF7B7FAC020B1
:1044600000904A48807A00F0010020B19DF80000D9
:1044700040F020000090454A12681179434A526882
:1044800010786B460122FFF7BEFB10B14FF0FF30F2
:10449000A0E73E48407C10B10220009001E00020DF
:1044A00000903A4A1268517C384A526810786B463C
:1044B0000122FFF7A8FB10B14FF0FF308AE7002080
:1044C0000090324A12685179304A526810786B462F
:1044D0000122FFF798FB002855D04FF0FF3079E715
:1044E00004200090294A12681179284A52681078ED
:1044F0006B460122FFF787FB10B14FF0FF3069E7F1
:104500002248807C20B92148807A00F0010010B94F
:104510004020009001E0602000901C4A1268117950
:104520001A4A526810786B460122FFF76CFB10B1F3
:104530004FF0FF304EE73220FEF748FA1348407C38
:1045400010B10120009001E0002000900F4A126895
:10455000517C0E4A526810786B460122FFF753FBDC
:1045600010B14FF0FF3035E7084A12685179074A19
:1045700052681078054B10330122FFF744FB10B14D
:104580004FF0FF3026E7002024E700001000002055
:104590002DE9F04186B007468846274890F8240068
:1045A00020B1002000F062F9012400E0002403A8FB
:1045B000FFF764FC05A8FFF709FC01A8FFF7B0FCB2
:1045C00002A8FFF7D5FC1C48867A04A8FFF74EFC2A
:1045D000002241463846FFF723F80725FF201649F9
:1045E0000872FF2114484172C1724FF6FF71C181F8
:1045F000FF218172017401210173BDF80C0000F0EC
:104600007DF99DF8140000F019F8BDF8040000F0E1
:10461000EFF9BDF8080000F02DFA304600F084FAFA
:104620009DF81000FFF79AFB14B1012000F01EF96D
:10463000284606B0BDE8F0811000002038B50446D9
:104640001E48807A10B94FF0FF3038BD022C06D0DA
:10465000042C07D0082C08D0102C0CD108E0002026
:1046600000900BE00820009008E01020009005E08A
:104670001820009002E04FF0FF30E6E700BF0F483F
:10468000407A9DF80010B0EBE10F01D10020DCE78B
:104690000A4A1268D179094A526810786B46012299
:1046A000FFF7B1FA10B14FF0FF30CEE79DF80000F0
:1046B000C110024841720020C7E70000100000202E
:1046C00038B504465048807CA04201D1002038BD56
:1046D000002C46D04C4A126811794B4A5268107827
:1046E0006B460122FFF77CFA10B14FF0FF30EEE786
:1046F0009DF8000020F020000090434A12681179D4
:10470000414A526810786B460122FFF77CFA10B1DB
:104710004FF0FF30DBE70320FEF758F9022000904E
:10472000394890F8220020B19DF8000040F0800048
:104730000090354890F8230020B19DF8000040F02B
:1047400030000090304A1268D17D2F4A52681078AC
:104750006B460122FFF757FA002851D04FF0FF3087
:10476000B5E7294A12681179274A526810786B46D2
:104770000122FFF735FA10B14FF0FF30A7E72248CA
:10478000807A00F0010028B19DF8000040F0200080
:10479000009004E09DF8000020F0200000901A4AEC
:1047A00012681179184A526810786B460122FFF797
:1047B0002AFA10B14FF0FF3089E70320FEF706F91F
:1047C000114890F8220010B18020009001E00020F4
:1047D00000900D4890F8230020B19DF8000040F0B3
:1047E00030000090084A1268D17D074A526810785C
:1047F0006B460122FFF707FA10B14FF0FF3066E772
:1048000001488474002062E71000002038B5044697
:104810002CB11548C089A04201DB642C02DD4FF0A9
:10482000FF3038BD1048C08990FBF4F0401EC0B284
:1048300000900D4A126892F824100B4A52681078C2
:104840006B460122FFF7DFF910B14FF0FF30E8E7C8
:104850000548C1899DF80000401C91FBF0F081B231
:10486000014801850020DCE71000002038B504462F
:10487000214890F82400A04201D1002038BD24B383
:104880001D4890F8250010B94FF0FF30F6E70020E2
:1048900000F08AFA0020FFF713FF1749C88C00F0D8
:1048A000E9F8002000901449496808786B46012215
:1048B0002321FFF7A8F901210F4880F824100120D7
:1048C00000F072FAFFF780FD13E0002000F06CFAB0
:1048D0000948007C00900849496808786B46012225
:1048E0002321FFF790F90021034880F82410FFF7F7
:1048F0006BFD0020C2E700001000002038B5044620
:104900001F48807A10B94FF0FF3038BDFA2C09D01B
:10491000B4F5FA7F09D0B4F57A7F09D0B4F5FA6F0F
:104920000CD108E0002000900BE00820009008E087
:104930001020009005E01820009002E04FF0FF30BA
:10494000E3E700BF0E48007A9DF80010B0EBE10FDE
:1049500001D10020D9E70A4A12689179084A5268C1
:1049600010786B460122FFF74EF910B14FF0FF307F
:10497000CBE79DF80000C010014908720020C4E791
:104980001000002038B50446184890F82300A042D3
:1049900001D1002038BD14B13020009001E000208A
:1049A00000901248807C20B19DF8000040F0020089
:1049B00000900E4890F8220020B19DF8000040F0D1
:1049C00080000090094A1268D17D084A5268107828
:1049D0006B460122FFF717F910B14FF0FF30D9E70E
:1049E000024880F823400020D4E700001000002097
:1049F00038B504461E48807A10B94FF0FF3038BDF4
:104A0000BC2C02DB0120009015E0622C02DB0220AE
:104A1000009010E02A2C02DB032000900BE0142C05
:104A200002DB0420009006E00A2C02DB0520009047
:104A300001E0062000900E48C07A9DF800108842E0
:104A400001D10020DBE70A4A12689178084A5268CF
:104A500010786B460122FFF7D6F810B14FF0FF3007
:104A6000CDE79DF800100248C1720020C7E70000A2
:104A70001000002038B504462A48807A10B94FF05B
:104A8000FF3038BD274890F8240010B14FF0FF30B8
:104A9000F7E72448007D50B134B1282C04DCE0B2A3
:104AA000FFF764FB0020ECE70020FFF75FFB042C1E
:104AB00001DA042404E0B4F57A7F01DD4FF47A745E
:104AC0004FF47A7090FBF4F0401EC0B20090154A8B
:104AD00012685178134A526810786B460122FFF72A
:104AE00092F810B14FF0FF30CBE79DF80000401C6A
:104AF0004FF47A7191FBF0F081B20A48C18101460E
:104B0000098D642902DA0146098D00E06421084616
:104B1000FFF77CFE0349C9894810FFF769FF0020B1
:104B2000AFE70000100000201CB5044604F0700040
:104B300010B10120019005E014B10020019001E0C6
:104B400040200190514A1268517D504A52681078B5
:104B500001AB0122FFF757F820B100214B488172C9
:104B6000481E1CBD9DF8040020F040014748017319
:104B70000020019004F0400020B99DF8040040F0AE
:104B80000400019004F0200020B99DF8040040F0DA
:104B90000200019004F0100020B99DF8040040F0DC
:104BA0000100019004F0080020B99DF8040040F0D5
:104BB00038000190354A1268917D344A5268107865
:104BC00001AB0122FFF71FF820B100212F488172AD
:104BD000481EC6E724B1082C02D00020FFF7D2FE01
:104BE0002A4A12681179294A526810786B460122C4
:104BF000FEF7F6FF10B14FF0FF30B2E704F001000E
:104C000038B1112001909DF8000040F02000009084
:104C100006E0102001909DF8000020F02000009098
:104C20001A4890F8240028B19DF8000040F0800058
:104C3000009004E09DF8000020F080000090134AEE
:104C4000126892F82610114A5268107801AB0122BE
:104C5000FEF7D9FF10B14FF0FF3082E70B4A126820
:104C600011790A4A526810786B460122FEF7CBFF91
:104C700010B14FF0FF3074E70448847200210175D1
:104C80003220FDF7A3FE00206BE70000100000209B
:104C9000F8B504460D46164616B94FF0FF30F8BD7C
:104CA0001A48807A10B94FF0FF30F8E720128DF8DB
:104CB0000000E0B28DF801009DF80100284413497E
:104CC00049684989884202DD4FF0FF30E7E70F4A23
:104CD0001268D17E0D4A526810786B460222FEF7A8
:104CE00092FF10B14FF0FF30D9E7EAB2074B1B68D3
:104CF000197E064B5B6818783346FEF784FF10B1C7
:104D00004FF0FF30CBE70020C9E700001000002083
:104D100010B588B002A905A8FFF73AFC0446072C95
:104D20003FD101A8FFF7CCF89DED050AB8EEC00A07
:104D3000DDED010A20EE200ABDEEC00A8DED050A68
:104D40009DED060AB8EEC00ADDED010A20EE200A4C
:104D5000BDEEC00A8DED060A9DED070AB8EEC00A49
:104D6000DDED010A20EE200ABDEEC00A8DED070A36
:104D700005A8FEF783F96846FFF74EF8BDF8001066
:104D8000029848430290BDF80010039848430390EE
:104D9000BDF8001004984843049002A8FEF79EF85E
:104DA00000BF08B010BD000038B50446214890F897
:104DB0002400C0B114B10220009001E00020009056
:104DC0001C4A1268517C1B4A526810786B460122BB
:104DD000FEF719FF10B14FF0FF3038BD9DF80010FD
:104DE0001448417423E01348807A10B94FF0FF3023
:104DF000F3E724B10F48407C08B10020EDE714B17F
:104E00000120009001E0002000900A4A1268517CC5
:104E1000084A526810786B460122FEF7F4FE10B182
:104E20004FF0FF30D9E79DF8001002484174002090
:104E3000D3E700001000002038B50120FFF740FC48
:104E40000C240EE06B46012200212046FEF7C8FE2E
:104E5000054625B99DF80000482800D103E0601CF4
:104E6000C4B20F2CEEDD00BF0F2C05DD81A0FCF7D6
:104E700027FC4FF0FF3038BD834880F82A401020CF
:104E80008DF80000804991F82A006B4601220A2122
:104E9000FEF7B9FE10B14FF0FF30ECE70120FDF74F
:104EA00095FD1F208DF80000774991F82A006B4688
:104EB00001220A21FEF7A7FE10B14FF0FF30DAE71A
:104EC0000120FDF783FD704991F82A006B4603220B
:104ED0001021FEF785FE10B14FF0FF30CBE79DF8B3
:104EE00000008030684988859DF80110803166484F
:104EF000C1859DF802108031018610208DF80000D8
:104F0000614991F82A006B4601220A21FEF77BFED7
:104F100010B14FF0FF30AEE70120FDF757FD002044
:104F2000FFF7CEFB40208DF80000574A1268917EB3
:104F3000554A526810786B460122FEF764FE10B1A4
:104F40004FF0FF3097E7504890F82A0040F080007B
:104F50008DF800004C4A1268917F4B4A52681078D5
:104F60006B460122FEF74FFE10B14FF0FF3082E793
:104F700002208DF80000444A1268D17F424A5268EC
:104F800010786B460122FEF73EFE10B14FF0FF3065
:104F900071E788208DF800003B4A126892F82010D3
:104FA000394A526810786B460122FEF72CFE10B188
:104FB0004FF0FF305FE7344890F82A008DF800008A
:104FC000314A126892F821102F4A526810786B46C5
:104FD0000122FEF718FE10B14FF0FF304BE70A2018
:104FE0008DF80000284A126892F82210264A52686A
:104FF00010786B460122FEF706FE10B14FF0FF302D
:1050000039E781208DF800001F4A126892F82310BA
:105010001D4A526810786B460122FEF7F4FD10B16C
:105020004FF0FF3027E711208DF80000164A126874
:1050300092F82610144A526810786B460122FEF747
:10504000E2FD10B14FF0FF3015E703208DF80000AE
:105050000D4A126892F827100B4A526810786B4676
:105060000122FEF7D0FD10B14FF0FF3003E7002022
:1050700001E70000436F6D70617373206E6F7420E1
:10508000666F756E642E0A001000002000B52DEDCD
:10509000048B83B041EC190BFBF718FC41EC180BA7
:1050A00018EE100A18EE901A8DED008B002818BF2C
:1050B0000120084320F00040C0F17F6000F1E04093
:1050C000C00F14D019EE101A19EE900A8DED009B46
:1050D000002918BF0121084320F00040C0F17F6083
:1050E00000F1E040C00F04BF0120FCF7E5FF51ECE8
:1050F000180B03B0BDEC048B00BD000075191A0C31
:105100006A231B1C1D1E1F207274433B4138393A11
:10511000696B6C376F77246D6E70000000000000C3
:105120000000000000006800000480004101000051
:1051300000010000830000000008000000010018CA
:1051400032000500000020410000D242295C0F3EE1
:105150009A99993E3333733F295C0F3E00007000EB
:10516000000000240000000200030000006500545D
:10517000FFEF0000FA80000B12820001030C30C325
:105180000E8C8CE914D5400213710F8E3883F8838E
:105190003000F883258EF8833000F883FFFFFFFF8F
:1051A0000FFEA9D6240004001A8279A10000003C59
:1051B000FFFF00000010000038836FA2003E0330A4
:1051C0004000000002CAE3093E8000002000000009
:1051D000000000004000000060000000000C000023
:1051E000000C186E000006920A16C0DFFFFF025680
:1051F000FD8CD377FFE1C496E0C5BEAA0000000095
:10520000FFFF0B2B00001657000003594000000061
:1052100000001DFA00026C1D000000003FFFDFEBE4
:10522000003EB3B6000D227800002F3C00000000C5
:10523000001942B5000039A20000B365D90E9FC91C
:105240001DCF4C3430000000500000003BB67AE81F
:105250000064000000C80000000000001000000012
:105260001000FA921000225E000D229F0001000043
:1052700000320000FF46000063D400001000000070
:1052800004D6000004CC000004CC00000000107222
:1052900000000040000000000000000000060002C6
:1052A000000500070000000000640000000000008E
:1052B0000000000500050064002000000000000060
:1052C0000000000000004000000003000000003269
:1052D000F8980000FF650000830F0000FF9BFC00B2
:1052E00000000000000000000000000000000000BE
:1052F00000000000000000000000000000000000AE
:10530000000000000000000000001000400000004D
:10531000000000060000B26A000200000001FB83EA
:105320000068000000D9FC007CF1FF830000000051
:1053300000650000006403E8006400280000002508
:105340000000000016A00000000010000000100087
:10535000002F0000000001F40000100000280000F1
:10536000FFFF4581FFFFFA7200000000000000000F
:10537000004400050005BAC6004778A200000001FD
:105380000000000000000600000000140000254D91
:10539000002F706D000005AE000C02D00000000070
:1053A000000000000000000000000000001B0000E2
:1053B0000000000000000000000000000064000089
:1053C00000080000000000000000000000000000D5
:1053D00000000000000000000000000000000000CD
:1053E00000000000000000000000000000000000BD
:1053F00000000000000000000000000000000000AD
:10540000000000000000000000000000000000009C
:10541000000000000000000000000000001B000071
:105420000000000000000000000E000E00000AC78F
:105430000004000000000032FFFFFF9C00000B2B67
:10544000000000020000000100000064FFE5000011
:10545000000000000000000000000000000000014B
:1054600000000000000100000000000000018000BA
:105470000001800000018000002426D3000000000D
:1054800000000000000600100096003C0000000034
:105490000000000000000000000000000C0A4E6840
:1054A000CDCF770950166759C619CE82000000008B
:1054B00000000000000000000000000000000000EC
:1054C0000000000017D78400030000000000000067
:1054D00000000000C7938F9D1E1B1C1900000000D8
:1054E00000000000000000000000000000000000BC
:1054F00000000000020318850000400000000003C7
:105500000000000300000000000000004000000058
:10551000000000000000000000000000000000008B
:10552000000000000000000000000000000000007B
:10553000000000000000000000000000000000006B
:10554000677DDF7E72902E554CF6E68800000000E5
:10555000000000000000000000000000D8DCB4B82B
:10556000B0D8B9ABF3F8FAB3B7BB8E9EAEF132F553
:105570001BF1B4B8B08097F1A9DFDFDFAADFDFDF6E
:10558000F2AAC5CDC7A90CC92C97F1A989264666F0
:10559000B28999A92D557DB0B08AA896365676F174
:1055A000BAA3B4B280C0B8A89711B28398BAA3F0D6
:1055B000240844106418B2B9B49883F1A329557D26
:1055C000BAB5B1A38393F0002850F5B2B6AA83937D
:1055D00028547CF1B9A3829361BAA2DADEDFDB81C1
:1055E0009AB9AEF5606870F1DABAA2DFD9BAA2FA58
:1055F000B9A38292DB31BAA2D9BAA2F8DF85A4D0CE
:10560000C1BBAD83C2C5C7B8A2DFDFDFBAA0DFDF91
:10561000DFD8D8F1B8AAB38DB4980D355DB2B6BA5B
:10562000AF8C96198F9FA70E161EB49AB8AA872C16
:10563000547CBAA4B08AB691325676B28494A4C887
:1056400008CDD8B8B4B0F19982A82D557D98A80E90
:10565000161EA22C547C92A4F02C5078F184A898A9
:10566000C4CDFCD80DDBA8FC2DF3D9BAA6F8DABA64
:10567000A6DED8BAB2B68696A6D0F3C841DAA6C8D6
:10568000F8D8B0B4B882A892F52C548898F135D9DE
:10569000F418D8F1A2D0F8F9A884D9C7DFF8F883B4
:1056A000C5DADF69DF83C1D8F40114F1A8824EA8FE
:1056B00084F311D182F5D992289788F109F41C1C42
:1056C000D884A8F3C0F9D1D99782F129F40DD8F381
:1056D000F9F9D1D982F4C203D8DEDF1AD8F1A2FADF
:1056E000F9A88498D9C7DFF8F8F883C7DADF69DF4B
:1056F000F883C3D8F40114F198A8822EA884F3117A
:10570000D182F5D992509788F109F41CD884A8F376
:10571000C0F8F9D1D99782F149F40DD8F3F9F9D14C
:10572000D982F4C403D8DEDFD8F1AD8898CCA809BB
:10573000F9D98292A8F57CF1883ACF944A6E98DB29
:105740006931DAADF2DEF9D88795A8F221D1DAA570
:10575000F9F417D9F1AE8ED0C0C3AE82C684C3A807
:105760008595C8A588F2C0F1F4010EF18E9EA8C6F9
:105770003E56F554F18872F40115F19845856EF5A1
:105780008E9E0488F142985A8E9E068869F4011C08
:10579000F1981E1108D0F504F11E970202983625E3
:1057A000DBF9D985A5F3C1DA85A5F3DFD88595A8FE
:1057B000F309DAA5FAD88292A8F578F1881A849FBD
:1057C00026889821DAF41DF3D8879F39D1AFD9DF25
:1057D000DFFBF9F40CF3D8FAD0F8DAF9F9D0DFD915
:1057E000F9D8F40BD8F3879F39D1AFD9DFDFF41D97
:1057F000F3D8FAFCA869F9F9AFD0DADEFAD9F88F54
:105800009FA8F1CCF398DB45D9AFDFD0F8D8F18F62
:105810009FA8CAF38809DAAF8FCBF8D8F2AD978D7D
:105820000CD9A5DFF9BAA6F3FAF412F2D8950DD186
:10583000D9BAA6F3FADAA5F2C1BAA6F3DFD8F1BA5B
:10584000B2B68696A6D0CAF349DAA6CBF8D8B0B4D9
:10585000B8D8AD84F2C0DFF18FCBC3A8B2B68696BC
:10586000C8C1CBC3F3B0B48898A821DB718D9D71FA
:10587000859521D9ADF2FAD88597A828D9F408D80A
:10588000F28D29DAF405D9F285A4C2F2D8A88D9454
:1058900001D1D9F411F2D88721D8F40AD8F284982A
:1058A000A8C801D1D9F411D8F3A4C8BBAFD0F2DE97
:1058B000F8F8F8F8F8F8F8F8D8F1B8F6B5B9B08A09
:1058C00095A3DE3CA3D9F8D85CA3D9F8D87CA3D99A
:1058D000F8D8F8F9D1A5D9DFDAFAD8B18530F7D9F7
:1058E000DED8F830ADDADED8F2B48C99A32D557D30
:1058F000A083DFDFDFB591A0F629D9FBD8A0FC2972
:10590000D9FAD8A0D051D9F8D8FC51D9F9D879D939
:10591000FBD8A0D0FC79D9FAD8A1F9F9F9F9F9A006
:10592000DADFDFDFD8A1F8F8F8F8F8ACDEF8ADDEA2
:105930008393AC2C547CF1A8DFDFDFF69D2CDAA03A
:10594000DFD9FADB2DF8D8A850DAA0D0DED9D0F80C
:10595000F8F8DB55F8D8A878DAA0D0DFD9D0FAF873
:10596000F8F8F8DB7DF8D89CA88CF530DB38D9D076
:10597000DEDFA0D0DEDFD8A848DB58D9DFD0DEA03C
:10598000DFD0DED8A868DB70D9DFDFA0DFDFD8F199
:10599000A888902C547C98A8D05C38D1DAF2AE8CD0
:1059A000DFF9D8B087A8C1C1B188A8C6F9F9DA363D
:1059B000D8A8F9DA36D8A8F9DA36D8A8F9DA36D874
:1059C000A8F9DA36D8F78D9DADF818DAF2AEDFD83F
:1059D000F7ADFA30D9A4DEF9D8F2AEDEFAF983A732
:1059E000D9C3C5C7F1889BA77AADF7DEDFA4F884D9
:1059F0009408A797F300AEF29819A488C6A39488D8
:105A0000F632DFF28393DB09D9F2AADFD8D8AEF8F9
:105A1000F9D1DAF3A4DEA7F1889B7AD8F38494AEA7
:105A200019F9DAAAF1DFD8A881C0C3C5C7A3928348
:105A3000F628ADDED9F8D8A350ADD9F8D8A378AD03
:105A4000D9F8D8F8F9D1A1DADEC3C5C7D8A18194B5
:105A5000F818F2B089ACC3C5C7F1D8B8B4B097860E
:105A6000A8319B069907AB9728889BF00C2014401F
:105A7000B0B4B8F0A88A9A285078B79BA829517971
:105A8000247059446938644831F1BBAB88002C5408
:105A90007CF0B38BB8A804285078F1B088B497266E
:105AA000A85998BBABB38B02264666B0B8F08A9C67
:105AB000A82951798B2951798A2470598B205871E2
:105AC0008A4469388B3940688A6448318B30496030
:105AD00088F1AC002C547CF08CA804285078F18814
