:020000040800F2
:10000000D804002001010008A90E0008430C0008D4
:10001000430E0008070B000821170008000000002D
:10002000000000000000000000000000291000088F
:100030000B0B000800000000310F0008151100082C
:100040001B0100081B0100081B0100081B01000820
:100050001B0100081B0100081B0100081B01000810
:100060001B0100081B0100081B0100081B01000800
:100070001B0100081B0100081B0100081B010008F0
:100080001B0100081B0100081B0100081B010008E0
:100090001B0100081B0100081B0100081B010008D0
:1000A0001B0100081B0100081B0100081B010008C0
:1000B0001B0100081B0100081B0100081B010008B0
:1000C0001B0100081B0100081B0100081B010008A0
:1000D0001B0100081B0100081B0100081B01000890
:1000E0001B0100081B0100081B010008DFF80CD0F1
:1000F00000F0A6FC00480047053A0008D80400209C
:100100000648804706480047FEE7FEE7FEE7FEE7B1
:10011000FEE7FEE7FEE7FEE7FEE7FEE7191100084F
:10012000ED0000082DE9F0410024061B254671F181
:10013000000605DA01240027D0EB070067EB010178
:10014000161E73F1000605DA0027D2EB070201251F
:1001500067EB030300F0C7FA86460E4617469C4637
:10016000AC4204D00025D0EB050E65EB010624B1AE
:100170000020D2EB000760EB030C704631463A4694
:100180006346BDE8F081D2B201E000F8012B491EC0
:10019000FBD270470022F6E710B513460A46044624
:1001A0001946FFF7F0FF204610BD30B50446002089
:1001B000034600E05B1C934203D2E05CCD5C401B35
:1001C000F8D030BDF0B480EA0102D40F4200B2EBA7
:1001D000410F02D20246084611464A0042D0C30DE2
:1001E000DDB2C1F3C752AD1A202D35DAC1F31601C5
:1001F00041F4000204B15242C5F1200602FA06F1B0
:100200002A411044B3EBD05F23D0C4B1012DA0EB41
:10021000C35009DCF0BC4FF0004202EAC352DBB22B
:1002200000F5000000F0CABA400000F1807000EB59
:10023000C350A0F1807040EAD170490009E049083C
:1002400041EAC071A0EBC35000F50000400800EB8C
:10025000C350F0BC00F0A9BA6142012202EB410197
:10026000001BF6E7F0BC704781F00041AAE780F080
:100270000040A7E780EA010210B502F00043400009
:1002800022D04A001FD0010E01EB1261C0F35600CC
:10029000C2F3560240F4000042F40002A0FB022028
:1002A00000047F39140400D0401C50EA124001D4ED
:1002B0004000491EC2B20C0604EBD010401C40089E
:1002C000802A02D003E0002010BD20F001000029A8
:1002D00000DA0020184310BD30B480EA010202F0B9
:1002E000004530F0004221F0004013D090B1C30D22
:1002F000D40DC2F31601C0F31600E41A41F4000154
:1003000040F400027D34914201D3641C00E04900B6
:10031000002C02DA30BC002070474FF400000023AC
:10032000914201D3891A034340084FEA4101F7D1B2
:1003300051B1914202D14FF0004105E002D24FF09D
:10034000010101E06FF0010103EBC450284430BC0F
:1003500000F02BBA2DE9FE4F804681EA0300C00F62
:100360000C46009021F0004123F00045B8EB02005C
:10037000A94105D24046214690461C460B460246FE
:1003800023F00040104347D0270DC7F30A00C3F302
:100390000A510290401A019040286BDAC3F313000F
:1003A00040F4801B0098924620B10023D2EB030A50
:1003B00063EB0B0B01985946C0F14002504600F028
:1003C000C3F906460D4650465946019A00F0DBF93E
:1003D00010EB08006141002487EA115284EAE773B8
:1003E0001A4340D0009A62B3019A012A4FEA075299
:1003F00015DC001B61EB02014FF0004202EA0752DC
:10040000CDE90042001C41F5801132462B4600F038
:1004100012FA03B0BDE8F08F40462146F9E7001B11
:1004200061EB0201001C41F5801300185B412018AC
:10043000A2F5001747EB030140EAD570B6196D41EC
:1004400011E06D084FEA360645EAC0754FEA0752DB
:10045000001B61EB0201001C41F5801149084FEAC5
:1004600030000019514132462B4603B0BDE8F04F31
:1004700000F0D2B90098012240000023D0EB020224
:1004800063EBE073009821464FEAE074B8EB00009C
:1004900061EB0401E9E783F000435BE781F0004191
:1004A00058E72DE9FE4F81EA030404F0004421F0EF
:1004B000004100944FF0000B23F0004350EA010488
:1004C0005ED052EA03045BD0C3F30A54C1F30A5569
:1004D0002C44A4F2F3340194A0FB0254C1F31301A1
:1004E00041F48011C3F3130343F4801301FB02446E
:1004F00000FB034E840A970A44EA815447EA835773
:10050000A4FB076802958D0A05FB07854FEA932C2B
:1005100004FB0C542705029D4FEA065847EA16379C
:10052000B5EB08056EEB070C870E920E47EA8117B4
:1005300042EA8312A7FB0201B6EB0B0164EB000455
:100540002B0D43EA0C335E1844EB1C50DA4651463F
:10055000E7FB0201C5F313044FEA0B3343EA1453DC
:100560004FEA0432019C43EA0603A4F10C0402940E
:10057000009CCDE900B400F05EF903B0BDE8F08F57
:1005800000200146F9E7C10F80EAE0700844CA077D
:100590009623002100F012B996230022114600F0A4
:1005A0000DB90EB5C10F80EAE0700844CA070021FA
:1005B00040F233438DE80E000A460B4600F03BF94B
:1005C00003B000BD00F0004220F00040C10DC0F3B8
:1005D000160040F400007F2901DA002070479629B8
:1005E00003DCC1F19601C84001E096398840002A39
:1005F000F4D04042704720F00040C10DC0F3160017
:1006000040F400007F2901DA00207047962903DCBE
:10061000C1F19601C840704796398840704770B55F
:10062000C1F30A5201F000450024C1F3130140F266
:10063000FF3341F480119A4201DA002070BD40F28C
:1006400033439A42A2F2334203DC524200F08BF869
:1006500000E090402C43F1D0404270BD00F00042D9
:1006600030F000400AD0C10D01F56071C0F31600F2
:1006700042EA0151C2084007114370470020014679
:10068000704701F0004330B421F0004150EA01020C
:1006900006D00A0DA2F56072C1F31301002A02DC34
:1006A00030BC00207047440F44EAC104C100E01888
:1006B00030BC00EBC25000F078B830B50B460146B4
:1006C00000202022012409E021FA02F59D4205D3F1
:1006D00003FA02F5491B04FA02F52844151EA2F19B
:1006E0000102F1DC30BD2DE9F05F054600209246A5
:1006F0009B4688460646814640241BE028464146E4
:100700004746224600F02FF853465A46C01A9141F8
:1007100010D311461846224600F016F82D1A67EB42
:1007200001084F4622460120002100F00DF817EB8A
:1007300000094E41201EA4F10104DFDC4846314689
:100740002A464346BDE8F09F202A04DB203A00FAFF
:1007500002F1002070479140C2F1200320FA03F318
:10076000194390407047202A04DB203A21FA02F016
:100770000021704721FA02F3D040C2F120029140DB
:10078000084319467047202A06DBCB17203A41FA66
:1007900002F043EAE07306E041FA02F3D040C2F10E
:1007A000200291400843194670470029A8BF7047AE
:1007B000401C490008BF20F00100704710B4B0FA97
:1007C00080FC00FA0CF050EA010404BF10BC704732
:1007D00049B1CCF1200421FA04F411FA0CF118BF4C
:1007E000012121430843A3EB0C01CB1D4FEA00611B
:1007F0004FEA102042BF002010BC704700EBC350EE
:1008000010440029A4BF10BC7047401C490008BF19
:1008100020F0010010BC704710B5141E73F10004E5
:1008200008DA401C41F1000192185B411A4301D1E2
:1008300020F0010010BD2DE9F04D92469B4611B10C
:10084000B1FA81F202E0B0FA80F220329046FFF76E
:100850007BFF04460F4640EA0A0041EA0B0153467B
:100860005A46084313D0114653EA010019D0C8F183
:1008700040025046FFF777FF05460E465046594660
:100880004246FFF761FF084305D0012004E02046FF
:100890003946BDE8F08D0020054346EAE0762C435A
:1008A00037430A986305E40AA0EB08000022FD0A1A
:1008B00044EA47540A3002D500200146E9E7010521
:1008C00010196941DDE9084500196941BDE8F04D9D
:1008D000A2E72DE9F04D81EA030404F0004B21F07A
:1008E000004514464FF0000A23F0004150EA05028B
:1008F00020D054EA01021DD0C5F30A570246C5F3C1
:100900001303C1F31300C1F30A5640F4801543F4F6
:100910008013A7EB0608101BD64608F2FD3873EBD0
:10092000050002D308F1010801E092185B41B8F11B
:10093000000F03DA00200146BDE8F08D00204FF4DF
:100940008011064684460EE0171B73EB050705D39E
:10095000121B63EB050306434CEA010C49084FEAFE
:10096000300092185B4150EA0107EDD152EA0300D2
:1009700012D082EA040083EA0501084305D0101B67
:10098000AB4106D20122002306E000224FF00043D3
:1009900002E06FF0010253101AEB06004CEB085115
:1009A00010EB0A0041EB0B01BDE8F04DFFF734BF3F
:1009B00070B521F0004303430CD0C1F30A55002465
:1009C000D5EB040564EB0403D617AD1AB34102DB83
:1009D0000020014670BD201841EB025170BDC1F3EB
:1009E0000A52C1F3130140F2FF3341F480119A42DD
:1009F00002DA00200146704740F233439A42A2F2E5
:100A0000334202DC5242FFF7AEBEFFF79DBE00004C
:100A100030B5041E71F1000404DB4FF00044404285
:100A200064EB0101141E73F1000405DB1C464FF05A
:100A30000043524263EB0403994208BF904230BD29
:100A4000064C074D06E0E06840F0010394E807001B
:100A500098471034AC42F6D3FFF74CFB905B00088C
:100A6000B05B00082DE9F04D00231A461B1A8A419D
:100A700003DB00200146BDE8F08DC1F30A52C1F34B
:100A8000130141F480154FF0000BD10702D100187B
:100A90006D41521E0027044640F2FF11384601EB1B
:100AA000620A3E468046024600204FF48011FFF75E
:100AB0005AFEC2197141BB1846EB0100B4EB030C9E
:100AC00075EB000C04D3E41A65EB000517460E46DF
:100AD000241908F101006D4180463428E3DDF9193D
:100AE00046EB0600091BA84103D24FF0FF32134624
:100AF00001E0002213461BEB070046EB0A51BDE85C
:100B0000F04DFFF789BE00BFFEE7704701B509E071
:100B1000002000E0401C4CF250318842FAD300998A
:100B2000491E009100990029F2D108BD2DE9F0413C
:100B3000024600250026002000230024002791F80B
:100B400003C00CF00F0591F803C00CF0100CBCF1C1
:100B5000000F03D091F802C04CEA050591F800C0DF
:100B6000BCF1000F31D0146800202BE04FF0010CD5
:100B70000CFA00F3B1F800C00CEA03069E4220D143
:100B800083004FF00F0C0CFA03F7BC4305FA03FC8B
:100B90004CEA040491F803C0BCF1280F06D14FF0D1
:100BA000010C0CFA00FCC2F814C00AE091F803C072
:100BB000BCF1480F05D14FF0010C0CFA00FCC2F853
:100BC00010C0401C0828D1D31460B1F800C0BCF19B
:100BD000FF0F34DD546800202EE000F1080C4FF0C8
:100BE000010808FA0CF3B1F800C00CEA03069E42B3
:100BF00021D183004FF00F0C0CFA03F7BC4305FA28
:100C000003FC4CEA040491F803C0BCF1280F05D1A1
:100C100000F1080C08FA0CF8C2F8148091F803C02F
:100C2000BCF1480F07D100F1080C4FF0010808FA99
:100C30000CF8C2F81080401C0828CED35460BDE8E0
:100C4000F08100BFFEE7000010B540200A490860AF
:100C500000F0ECF880200849086000F0E7F8402038
:100C60000549091F086000F0E1F8402002490860CA
:100C700000F0DCF810BD0000140C014010B540205D
:100C80000A49086000F0D2F880200849091F08606E
:100C900000F0CCF840200549091F086000F0C6F8B4
:100CA00040200249086000F0C1F810BD140C01405A
:100CB00070B50825002480201149086014E0600602
:100CC000040E40200E49091D086000F0AFF84020D6
:100CD0000B49086000F0AAF809480838006800F0DD
:100CE000800008B144F00104281EA5F10101CDB235
:100CF000E5D140200249091D0860204670BD000072
:100D0000100C014070B50446082519E04020114937
:100D1000086000F08BF804F0800020B180200D49BD
:100D2000091F086002E080200A4908606006040E7E
:100D300000F07CF840200749091F086000F076F8B1
:100D4000281EA5F10101CDB2E0D140200149086083
:100D500070BD0000140C014010B5802013490860DC
:100D60004020086000F062F810480838006808B9B0
:100D7000012000E0002000F0800008B1002010BD3C
:100D800080200A49091D086000F050F8074808381B
:100D9000006800F0800008B10020F0E780200349DF
:100DA000091D086000F042F80120E8E7100C01403E
:100DB00010B540200A49086000F038F88020084942
:100DC000086000F033F840200549091F086000F072
:100DD0002DF880200249091F086000F027F810BD97
:100DE000140C014010B540200F49086000F01EF8B7
:100DF00080200D49091F086000F018F840200A49BA
:100E0000091F086000F012F807480C38006800F06D
:100E1000800020B1402004490860002010BD40201F
:100E2000014908600120F9E7140C014008B50720CA
:100E3000009002E00098401E009000980028F9D130
:100E400008BD00BFFEE7000070B5044602F044FF95
:100E5000C5B202223721682002F01CFD0A20FFF7EC
:100E600055FEF5B9782003F003FD782002F022FE4C
:100E7000642003F0A3FC01F00BFE0A4802F086FD9B
:100E8000064602F05FF840F2731001F0A9FC6420FE
:100E900001F088FF012C01D103F0DEFD012003F0F9
:100EA00089FB70BD880000207047000070B50021EC
:100EB00000230F22C47804B3154C246804F4E064C2
:100EC000C4F5E064210AC1F10403CA40447804FA7D
:100ED00003F184781440214309010E4C0678A15592
:100EE000047804F01F050124AC4005786D11AD00B5
:100EF00005F1E025C5F8004109E0047804F01F057C
:100F00000124AC40044D0678761145F8264070BDAA
:100F10000CED00E000E400E080E100E00249014364
:100F2000024A1160704700000000FA050CED00E075
:100F30007047000029B1064A92690243044B9A6146
:100F400004E0034A92698243014B9A6170470000B2
:100F50000010024030B500210022002400232D4D56
:100F60006D6805F00C0121B1042905D0082923D1B1
:100F700005E0294D056022E0274D05601FE0254D65
:100F80006D6805F47012234D6D6805F480340225F8
:100F900005EB92421CB9214D554305600BE01D4DF8
:100FA0006D6805F400351DB11C4D5543056002E028
:100FB000194D5543056002E0174D056000BF00BFA5
:100FC000144D6D6805F0F0010909154D6B5C05685D
:100FD000DD4045600F4D6D6805F4E061090A104D74
:100FE0006B5C4568DD4085600A4D6D6805F46051B5
:100FF000C90A0B4D6B5C4568DD40C560054D6D68E9
:1010000005F44041890B074D6B5CC568B5FBF3F5F2
:10101000056130BD0010024000127A0000093D0059
:101020000000002010000020704710B500F002F80A
:1010300010BD00000CB500200190009033480068FE
:1010400040F480303149086000BF3048006800F447
:10105000003000900198401C0190009818B9019848
:10106000B0F5A06FF1D12948006800F4003010B14C
:101070000120009001E0002000900098012843D159
:101080002348006840F010002149086008460068C5
:1010900020F0030008600846006840F00200086085
:1010A0001A48406819494860084640684860084640
:1010B000406840F4806048600846406820F47C1036
:1010C00048600846406840F4E810486008460068F8
:1010D00040F08070086000BF0C48006800F00070AD
:1010E0000028F9D00948406820F00300074948600B
:1010F0000846406840F00200486000BF034840686E
:1011000000F00C000828F9D10CBD000000100240CE
:10111000002002407047000010B51348006840F0FE
:1011200001001149086008464068104908400E490E
:101130004860084600680E4908400B4908600846A8
:10114000006820F4802008600846406820F4FE0013
:1011500048604FF41F008860FFF767FF4FF00060A2
:101160000449086010BD0000001002400000FFF8B4
:10117000FFFFF6FE08ED00E000B585B00121052077
:10118000FFF7D8FE01218803FFF7D4FE4FF400706B
:10119000ADF8100018208DF8130003208DF8120010
:1011A00004A91948FFF7C2FC4FF48060ADF81000A5
:1011B00004208DF8130004A91348FFF7B7FC4FF47F
:1011C000E13000900020ADF80400ADF80600ADF865
:1011D0000800ADF80C000C20ADF80A0069460B4879
:1011E00000F05EF803F018FE012240F22551074896
:1011F00000F030F80121054800F013F840210348C1
:1012000000F006F805B000BD0008014000380140BC
:1012100001F40072B2F5007F00D100BFCA43028022
:10122000704721B1828942F40052828104E08289B0
:101230004DF6FF731A408281704702460020B1F5D7
:10124000007F00D100BF13880B400BB1012000E0EC
:1012500000207047F0B5034600240026002500203A
:1012600040F66A17B94200D100BF1846C1F34214D4
:1012700001F01F06012707FA06F5012C01D10C30F9
:1012800004E0022C01D1103000E014301AB10768DC
:101290002F43076002E00768AF430760F0BD00001E
:1012A0002DE9F04786B005460E460024A24600BF51
:1012B000A1460027B08900B100BF2F462C8A4CF60A
:1012C000FF700440F08804432C82AC894EF6F31082
:1012D0000440B08831890843718908430443AC81D4
:1012E000AC8A4FF6FF400440B0890443AC8201A8A9
:1012F000FFF730FE1F48874202D1DDF810A001E061
:10130000DDF80CA0A88900F4004040B10AEBCA0047
:1013100000EB0A1031684900B0FBF1F807E00AEB76
:10132000CA0000EB0A1031688900B0FBF1F86420B4
:10133000B8FBF0F004012009642101FB1089A889A1
:1013400000F4004040B1322000EBC900B0FBF1F0E6
:1013500000F00700044308E0322000EB091064218C
:10136000B0FBF1F000F00F0004432C8106B0BDE8A3
:10137000F087000000380140C1F308028280704706
:101380002DE9FC5F01220A210C2002F083FA0A20D9
:10139000FFF7BCFB334B012203210C2002F03EFA85
:1013A000304B5B1C012204210C2002F037FA2D483F
:1013B00000782C49497840EA012000B22A49088087
:1013C000284B9B1C012205210C2002F027FA254BFB
:1013D000DB1C012206210C2002F020FA2148807833
:1013E0002049C97840EA012000B2204908801D4BFD
:1013F0001B1D012207210C2002F0A2FA194B5B1DD4
:10140000012208210C2002F09BFA164800791549A8
:10141000497940EA012000B215490880134909883A
:1014200008B2FFF7BEF806460F460F48B0F90000B5
:10143000FFF7B7F8804632463B4601F0A7F804466E
:101440000C4A0D4BFFF72DF8824600220B4BFEF79E
:1014500081FFCDE90001FFF7E2F800B208490880FA
:10146000BDE8FC9FAC0000205C0000205E00002076
:1014700060000020775AF01ADCA54C4000806640DE
:101480004C0000202DE9F04F8BB096489649974BC1
:10149000974ACDE900109749974801F005FB92481B
:1014A000008800F4807000287DD091490868FFF71B
:1014B0006AF804464FF09D41FEF70EFF8F49086021
:1014C0008B494868FFF75FF804464FF09D41FEF7EF
:1014D00003FF8B49086086498868FFF754F8044683
:1014E0004FF09D41FEF7F8FE864908608049C868C4
:1014F000FFF749F804464FF09D41FEF7EDFE8249A3
:1015000008607E4801684FF08040FEF7B3FE069009
:101510007C4801680698FEF7ADFE0890784801689F
:101520004FF04040FEF7A6FE069077480168069807
:10153000FEF7A0FE07900899FEF744FE0990FFF71A
:101540008DF8824600F0DAFD80464FF066326F4B30
:10155000FEF7A7FF064600226D4BFEF7FBFE044692
:10156000FFF78FF86B490860664801684FF08040CC
:10157000FEF780FE0390634801680398FEF77AFE49
:1015800082465F4801684FF04040FEF773FE0390CB
:101590005B4801680398FEF76DFE83465146FEF7EF
:1015A00063FE814600E09BE04FF07E51FEF70AFEAD
:1015B0000446FFF753F8CDE90601504801684FF0A3
:1015C0008040FEF757FE83464D4801685846FEF7B7
:1015D00051FE81464B4801684FF08040FEF74AFEBD
:1015E0008346494801685846FEF744FE824649460C
:1015F000FEF7E8FD0446FFF731F8CDE90401DDE927
:10160000062300F0C3FF4FF06632404BCDE90801DE
:10161000FEF747FF074600224FF04043FEF79AFED1
:101620000546FFF72EF83C49086037480168006816
:10163000FEF720FE0690334801680068FEF71AFEA8
:1016400004902F4801680068FEF714FE02902B48B2
:1016500001680068FEF70EFE01900299FEF7B2FDE8
:1016600003900499FEF700FE05900699FEF7FCFD35
:101670000790FEF7F3FF82468B46234801681F4818
:101680000068FEF7F7FD05901E4801681C480068D9
:10169000FEF7F0FD04900599FEF794FD4FF08041B0
:1016A0000690FEF7E7FD0790FEF7D8FF0646524684
:1016B0005B4600F06BFF4FF06632144BCDE908013A
:1016C000FEF7EFFE044600221346FEF743FE804677
:1016D000FEF7D7FF1149086000200BB0BDE8F08F7E
:1016E0000120FAE77600002074000020640000204A
:1016F000B80000206E000020680000207800002064
:101700007C000020800000208400002066A64C4061
:101710000000F03F5000002054000020580000203E
:1017200000BFFEE70FB4054B10B503A9044A0298A9
:1017300000F04CF910BC5DF814FB000059330008B0
:1017400094000020490050EAC12018BF04204A0D2F
:1017500018BF40F0010040F2FF72B2EB515F08BFCA
:1017600040F00200012808BF052070472DE9F04134
:101770004F1E00EBC7010446D1E9000115461E4685
:1017800037F006020DD02A463346FEF78AFE7F1E4A
:1017900004EBC703D3E90023FEF7DCFD37F00602B4
:1017A000F1D1022F25D0042F13D0062F18BFBDE88A
:1017B000F0812A463346FEF774FED4E90A23FEF789
:1017C000C9FD2A463346FEF76CFED4E90823FEF72E
:1017D000C1FD2A463346FEF764FED4E90623FEF730
:1017E000B9FD2A463346FEF75CFED4E90423FEF732
:1017F000B1FD2A463346FEF754FED4E90223FEF734
:10180000A9FD2A463346FEF74CFED4E90023BDE885
:10181000F041FEF79FBD0122FFF7CAB8FEF79ABD5F
:101820000022134610461146FFF753B8024A002023
:101830001107FFF7BDB8000001FDFFFF02E008C877
:10184000121F08C1002AFAD170477047002001E03A
:1018500001C1121F002AFBD1704700000149086036
:1018600070470000980000202DE9FF5FDDE90220AD
:10187000010DDDF838B0024318D044F61050A1F243
:10188000FF3141430D140F98012820D0A5EB0B0028
:10189000401C5FEA000A4FF00004474EDFF81C913D
:1018A000A046504616D5CAF1000728E00F9801243B
:1018B00043A2012808D0002100980F9BC0E9002115
:1018C000C0E90243BDE8FF9F6FEA0B01F4E7CBF1EB
:1018D0000000DEE7074612E0F80707D0224633464D
:1018E00040464946FEF7DDFD80468946224633469E
:1018F00010461946FEF7D5FD04460E467F10002F10
:10190000EAD1DDE90201BAF1000F42464B4602DAA4
:10191000FEF7C7FD01E0FEF7DCFF04460E4600229D
:10192000284BFFF775F803D84FF0FF30014607E06A
:101930000022254B20463146FEF70CFDFFF74FF8FD
:10194000102409E0002C0ADB0A220023FEF7CBFE5C
:10195000019B30321A55641E50EA0102F2D1641C18
:10196000019AC4F1110314440F9A012A03D00122F1
:1019700008430DD10AE0084304D000204FF0110BBA
:101980000F9080E7A3EB0B056D1E0DE05B4504DDBA
:101990004FF0000205F1010504E003DA4FF0000208
:1019A000A5F10105002AECD000980F99C0E9023199
:1019B000C0E9004586E70000000024400000F03F39
:1019C000300000000000F0430000E03F2DE9FF4F31
:1019D00095B09B468946064600250FE2252877D11B
:1019E00000242746F84A0121059400E0044316F834
:1019F000013F203B01FA03F01042F7D130782A284A
:101A000011D06FF02F033078A0F13002092A16D8D8
:101A1000059A44F0020402EB820203EB42021044F6
:101A2000761C0590EFE759F8042B0592002A03DA9B
:101A3000504244F40054059044F00204761C30787F
:101A40002E2816D116F8010F44F004042A280DD0D0
:101A50006FF02F023078A0F13003092B09D807EB83
:101A6000870302EB4303C718761CF3E759F8047B9E
:101A7000761C30786C280FD006DC4C2817D06828EC
:101A80000DD06A2814D104E0742810D07A280FD120
:101A90000DE044F400140AE044F4801401E044F43E
:101AA00040147278824202D104F58014761C761CB0
:101AB000307866280BD013DC582877D009DC002852
:101AC00075D04528F6D04628F4D047281AD19DE194
:101AD00018E0632835D0642879D0652812D195E1C3
:101AE000702873D008DC6728F1D069286FD06E2881
:101AF0000DD06F2806D1B5E073282CD0752875D08D
:101B0000782874D05A46179990476D1C75E1C4F334
:101B10000250022809D003280DD0D9F8001004285B
:101B20000DD00D6009F1040967E1D9F80010EA173A
:101B3000C1E90052F6E7D9F800100D80F2E70D7008
:101B4000F0E719F8041B8DF8001000208DF8010053
:101B5000EA46012003E059F804AB4FF0FF3061077B
:101B60004FF0000102D40DE008F101018846B942AE
:101B70000FDA8045F8DB1AF808100029F4D108E0E4
:101B800008F1010188468142FADB1AF808100029A1
:101B9000F6D105985B46A0EB080721463846179A10
:101BA00000F094FA284400EB080507E04DE029E135
:101BB0000DE01AF8010B5A4617999047B8F1010841
:101BC000F7D25B4621463846179A13E142E00A22D3
:101BD0000092C4F302524FF0000A022A08D059F8CA
:101BE00004CB032A4FEAEC710AD00DE029E02AE089
:101BF00009F1070121F00702F2E802C1914609E06C
:101C00000FFA8CFC4FEAEC71042A03D14FFA8CFCDA
:101C10004FEAEC71002907DA0A460021DCF1000CDA
:101C200061EB02012D2202E0220504D52B228DF862
:101C30000420012203E0E20701D02022F7E79046CA
:101C400059E00A2102E010220DE010214FF0000AB5
:101C500000910BE010224FF0000A44F00404082722
:101C6000009203E008224FF0000A0092C4F30252EF
:101C7000022A05D059F804CB0021032A08D009E034
:101C800009F1070121F00702F2E802C1914605E0DF
:101C90001FFA8CFC042A01D10CF0FF0C4FF0000855
:101CA000220728D5702806D0009B83F0100353EA42
:101CB0000A0305D00EE040228DF80420012208E03E
:101CC0005CEA010206D030228DF804208DF8050070
:101CD00002229046009B83F0080353EA0A030AD1CC
:101CE0005CEA010201D1620705D530228DF804209B
:101CF0004FF001087F1E582804D034A003900EA88E
:101D000002900DE036A0F9E753466046009AFEF7D0
:101D1000EAFC84460398825C0298401E029002709E
:101D20005CEA0100F0D1029806A9081A00F1200A25
:101D3000600702D524F4803400E00127574502DD16
:101D4000A7EB0A0000E0002000EB0A0100900598D4
:101D50004144401A0590E00306D45B462146179A99
:101D6000059800F0B3F90544002706E001A85A469B
:101D7000C05D179990476D1C7F1C4745F6DBE0035B
:101D80000CD55B462146179A059800F09FF905444B
:101D900004E030205A46179990476D1C0099481E60
:101DA00000900029F5DC08E0029802995A46007874
:101DB000491C0291179990476D1CBAF10001AAF1D4
:101DC000010AF1DC65E100000928010030313233FD
:101DD0003435363738396162636465660000000067
:101DE0003031323334353637383941424344454651
:101DF0000000000000F058F90544761C30780028F7
:101E00007FF4ECAD19B02846BDE8F08F620700D42E
:101E1000062709F1070222F0070CFCE80223E1463D
:101E200003F000485FEA080C02D00FF2702C0DE0BE
:101E30005FEA045C02D50FF2682C07E05FEAC47C1D
:101E400002D00FF2602C01E0AFF2700C4FF0FF38BF
:101E500023F00043CDF850C065280CD006DC45289F
:101E600009D046281DD047283DD13DE0662818D02E
:101E700067287ED138E00021112F01DB112000E01E
:101E8000781CCDE9000106A90EA8FFF7EDFCDDE9FD
:101E90000F010E9A03910021009207F1010A0491AB
:101EA0004DE04FF000400097CDE9011006A90EA8C3
:101EB000FFF7DAFCDDE90F0203920E9B1199002275
:101EC000DDF80CA00093049211B9791C00EB010A13
:101ED000B7EB0A0004D4C0F1FF3007F1010A049007
:101EE000AAEB0700019044E0012F00DA012700214E
:101EF000112F01DD112000E03846CDE9000106A9CF
:101F00000EA8FFF7B1FCDDE90F010E9A0391002145
:101F100004910092BA4621070CD40399514500DA86
:101F20008A46BAF1010F05DD009AAAF10101515C60
:101F3000302908D0B84202DA10F1040F06DA012184
:101F4000CDE9011015E0AAF10101E9E7002805DC5F
:101F5000049901440491AAEB000102E0411C51459F
:101F600000DD8A460499401A401C01904FF0004061
:101F70000290200704D40198504501DBCDF804807D
:101F800000208DF84F0002980DF14F07B0F1004F7F
:101F900025D02B200E9002984FF0020800280CDA72
:101FA000404202902D200E9007E00A210298FEF791
:101FB00084FB3031029007F8011DB8F10001A8F14F
:101FC0000108F2DC02980028EFD1791E0E98087003
:101FD000307800F0200040F0450007F8020D12A80C
:101FE000C01B00F107081498007800B1012000EB35
:101FF0000A01019801EBE07105984144401A401E26
:102000000590E00306D45B462146179A059800F038
:102010005DF805441498007818B15A46179990470E
:102020006D1CE00324D55B462146179A059800F005
:102030004DF805441CE00498002807DBDDE90301A6
:10204000884203DD0098405C179901E01799302021
:102050005A469047049805F10105401C04900198E8
:10206000401E019004D12E205A46179990476D1CAE
:10207000BAF10001AAF1010ADDDC05E017F8010B55
:102080005A46179990476D1CB8F10001A8F1010854
:10209000F4DC5B462146179A0598ABE62D0000005C
:1020A0002B000000200000002DE9F041044600252F
:1020B0001E461746880404D405E039462020B04760
:1020C0006D1C641EF9D52846BDE8F0812DE9F0416C
:1020D000044600251E469046C80301D5302700E07F
:1020E0002027880404D505E041463846B0476D1CDA
:1020F000641EF9D52846BDE8F08100002DE9F04DB9
:102100008D4F21F0004A86B005460C46BA452ADBC1
:10211000AAEB070028430AD08848824501DC1AD17F
:10212000CDB106B02846BDE8F04DFFF774BB844A38
:10213000844B2846FEF7B5F907460E46824A834B84
:1021400028462146FEF7ADF906B03A463346BDE8CB
:10215000F04DFEF7FFB80120FFF780FB06B0BDE8A9
:10216000F04DFFF75DBB7A48824542DABAF1795FFC
:102170000BDA2846FFF7E6FA042808BFFFF756FBFC
:10218000284606B02146BDE8F08D2A460B4610468B
:10219000FEF787F9834602466E480E460B46062137
:1021A0007844FFF7E3FA5A463346FEF77AF9804659
:1021B00069488A465A46334604217844FFF7D6FADE
:1021C0005A463346FEF76DF900223B46FEF7C2F849
:1021D00002460B4640465146FEF77BFB2A46234605
:1021E000FEF75FF906B02A462346BDE8F04DFEF73C
:1021F000B1B8284624F0004100223D463B46FEF798
:102200004DF94FF0FF32FEF7D3FB06460246534826
:102210000F460B4606217844FFF7A8FA32463B46A4
:10222000FEF73FF9CDE900014D4832463B46042117
:102230007844FFF79BFA32463B46FEF732F900221C
:102240002B46FEF787F8834602913046394602F066
:10225000BDFD804643480D46504517DCDDE90001D1
:102260005A46029BFEF735FB42462B46FEF719F90C
:1022700042462B46FEF76EF80122FEF799FB304AE4
:10228000304BFEF708F9304A304B4CE04FF0000A73
:1022900052460B464046FEF75DF8CDE90310524624
:1022A0002B4610461946FEF7FCF832463B46FEF731
:1022B000F5F8DDE90332FEF70CFB06460F46DDE9D3
:1022C00000015A46029BFEF704FB8346009101225F
:1022D00030463946FEF76CFB194A1A4BFEF7DEF81A
:1022E00006460F46012240462946FEF761FB5A4644
:1022F000009BFEF7D6F832463B46FEF7CCF8064682
:102300000F46012250462946FEF752FB0E4DDFF8DC
:1023100058802A464346FEF7C1F832463B46FEF750
:10232000BDF82A464346FEF7B9F8002CD8BF81F025
:10233000004106B0BDE8F08D0000F03F0000F07FE6
:10234000075C143326A6913C182D4454FB21F93F19
:102350000000E03FFC380000123900008638000021
:102360009C3800003333EF3FFB21E93F2DE9F84F64
:1023700004460D4621F0004000917349814211DC72
:102380007249884201DC06D12CB120462946BDE8BD
:10239000F84FFFF740BA6E48002DCCBF6D496E492B
:1023A000BDE8F88F6D49814211DD6D498142D8BF8A
:1023B0004FF0FF366DDD20462946FFF7C3F90428AC
:1023C00008BFFFF733FA20462946BDE8F88F654974
:1023D000654F25F00045814233DD6449814219DDB6
:1023E000002632464FF0804320462946FDF7B2FFD3
:1023F00080468A46012220462946FEF7D9FA002265
:102400003B46FEF748F842465346FEF762FA04465A
:102410000D463EE001260022BA463B4620462946AC
:10242000FDF798FF80460F46002253462046294676
:10243000FEF731F842463B46FEF74BFA04460D469E
:1024400027E04B4981421BDDDFF828A1022600224C
:10245000534620462946FEF724F800223B46FDF766
:1024600079FF80460F460022534620462946FEF754
:1024700012F842463B46FEF72CFA04460D4608E0A9
:10248000032622462B4600203B49FEF722FA04464B
:102490000D4622462B4610461946FEF702F88B469B
:1024A000824602460B46FDF7FCFF074602463348CC
:1024B00088460B4606217844FFF758F952465B469A
:1024C000FDF7EFFF82462E488B463A4643460521EC
:1024D0007844FFF74BF93A464346FDF7E2FF0246E0
:1024E0000B46002E504659460CDAFDF733FF2246C4
:1024F0002B46FDF7D6FF01B022462B46BDE8F04F34
:10250000FDF7CCBFFDF726FF22462B46FDF7C9FF9E
:102510001C4A7A4402EBC603D3E90023FDF7BBFF54
:1025200022462B46FDF7B7FF174A7A4402EBC60353
:10253000D3E90023FDF7B2FF009A002AB8BF81F06B
:102540000041BDE8F88F0000000010440000F07F5B
:10255000182D4454FB21F93FFB21F9BF0000DC3F5B
:102560000000203E0000F33F0000F03F0000E63F87
:10257000008003400000F83F0000F0BF9E360000DE
:102580005C360000FA350000C23500002DE9F04D40
:102590009446CCF1000423F000464CEA0404524F68
:1025A00046EAD4749A46884621F00042BC4206D8D6
:1025B000454240EA050442EAD474BC4204D9BDE86D
:1025C000F04D6246FFF72AB9AAF14055A5F17F65A3
:1025D00055EA0C040BD0022404EAAA74434DDFF838
:1025E00010E144EAD87452EA000B04D00CE0BDE8D4
:1025F000F04DFFF7BBBE002C14BF012CBDE8F08DE1
:10260000022C30D0032C32D056EA0C0B0AD0BE423A
:1026100020D1BA4209D126F0804622F080423346CA
:10262000114617E000291ADB25E0DFF8C8B0FB44AB
:10263000002C04BFDBE90001BDE8F08D012C02BFD6
:10264000DBE9000181F00041BDE8F08D022C0AD0E9
:10265000032C0CD0BA4212D1B8F1000F0BDA234888
:102660002549BDE8F08D28462449BDE8F08D28466F
:102670007146BDE8F08D1D482149BDE8F08D921BE3
:1026800012153C2AC4BF19481D490EDCBAF1000FCF
:10269000BEBF12F13C0F0020014606DB6246FEF78A
:1026A00018F921F00041FFF761FE002C08BFBDE8DA
:1026B000F08D012C04BF81F00041BDE8F08D114A7E
:1026C000114B022C07D0FDF7E6FE2A46BDE8F04D7F
:1026D0000A4BFDF7E0BEFDF7DEFE2A46BDE8F04DF1
:1026E000064BFDF7DBBE00000000F07F182D4454C0
:1026F000FB2109C056350000FB21F9BFFB21094031
:10270000FB21F93F075C143326A6A13C2DE9F041DB
:102710000446E07800F0C006E07800F03F056078FD
:1027200000F0010098B1EF102846E91705EB517150
:10273000C910A5EBC101491C01F0FF080B48006856
:1027400020B10A48414602683846904700BF607889
:1027500000F0080030B10548406818B1B011034AD4
:10276000516888470020BDE8F08100009C000020EF
:1027700010B5044603E04FF47A7000F005F8201E0F
:10278000A4F10104F7D110BD014605E0002001E0ED
:10279000421CD0B20A28FBDB0A1EA1F10101F5D1CF
:1027A000704738B5044664B120208DF80000282019
:1027B0008DF8010030208DF8020038208DF80300DC
:1027C00004E0A32204216846FDF7DDFC6A460421EB
:1027D00040F69E2002F000F901F09AFC38BD00009E
:1027E0003EB5044602208DF80000CA208DF8010095
:1027F000E3208DF8020009208DF803006A460421C9
:10280000682002F0E9F8A3208DF8000004F04000F1
:1028100048B1C0208DF80100C8208DF80200C22008
:102820008DF8030006E0A3208DF801008DF802006A
:102830008DF8030004F4C07048B1C4208DF8040082
:10284000CC208DF80500C6208DF8060006E0A320F8
:102850008DF804008DF805008DF80600A3208DF892
:1028600007008DF808008DF809006A460A2140F635
:10287000A72002F0B1F804F0030018B120208DF871
:10288000000002E0D8208DF800006A46012140F6E1
:10289000B62002F0A1F804F0200018B1012000F0E9
:1028A000ADF802E0002000F0A9F804F4C07008B30D
:1028B00004F4807060B1B2208DF800008B208DF898
:1028C0000100B6208DF802009B208DF803000BE07C
:1028D000B0208DF8000080208DF80100B4208DF824
:1028E000020090208DF803006A46042140F6A220E1
:1028F00002F072F804F0010020B3F8208DF8000017
:102900006A4601214FF40B6002F066F8FA210720B5
:1029100000F02CFC072000F0F3FB012000F013FC7A
:10292000642000F0F3FC4FF4FA7000F002FDC821BF
:10293000304800F0A3FB282000F0BCFB0A2000F088
:10294000CCFB08E0D8208DF800006A4601214FF446
:102950000B6002F041F804F0020018B1D9208DF8A4
:10296000000002E0D8208DF800006A46012140F204
:102970003D7002F031F804F0040018B1012000F0BD
:1029800069F802E0002000F065F804F0100018B1CA
:102990000120FFF706FF02E00020FFF702FF44F0EE
:1029A00008001549488101F0B3FB002012498873E3
:1029B00004F0400018B10846807B801D887304F441
:1029C000C07020B10C48807B801D0B49887304F0D7
:1029D000140020B10848807B10300749887304F048
:1029E000030020B10448807B001D03498873002048
:1029F0003EBD000009E3CA029C0000203EB504462B
:102A00006CB10EA1D1E900208968CDE900200291C6
:102A10006A4609214FF4976001F0DEFF3EBD0AA22D
:102A2000D2E900109268CDE9010200916A460921BD
:102A30004FF4976001F0D0FFF0E70000B8AAB38D23
:102A4000B4980D355D000000B8AAAAAAB088C3C525
:102A5000C700000038B5044664B1C0208DF80000FE
:102A6000C2208DF80100C4208DF80200C6208DF828
:102A7000030004E08B2204216846FDF784FB6A46CC
:102A8000042140F6982001F0A7FF01F041FB38BD7A
:102A900010B5C8234FF48062024940F6F63001F0C9
:102AA000ADF910BDA44E00082DE9F04F8DB00746DA
:102AB000884615469946DDE9166B002400203080D3
:102AC0006B49887B5A4605A901F082FA18B1601E4D
:102AD0000DB0BDE8F08F6648807A00F01400002841
:102AE00067D09DF8140000069DF8151040EA0140DB
:102AF0009DF8161040EA01209DF817100843286041
:102B00009DF8180000069DF8191040EA01409DF854
:102B10001A1040EA01209DF81B10084368609DF8D8
:102B20001C0000069DF81D1040EA01409DF81E1093
:102B300040EA01209DF81F100843A8609DF820007E
:102B400000069DF8211040EA01409DF8221040EA5D
:102B500001209DF823100843E86004F11000C4B27E
:102B6000286800140190686800140290A868001496
:102B70000390E8680014049001984043029901FB17
:102B80000100039901FB0100049901FB010ABAF15C
:102B9000706F02DBBAF1885F05DD01F0B9FA002041
:102BA0003080401E94E7B6F9000040F48070308019
:102BB00000BF2F48807A00F0400020B305A9601CB8
:102BC000085C095D40EA012000B2A8F8000005A9F0
:102BD000E01C095C05AAA01C105C41EA002000B2C0
:102BE000A8F8020005A9601D095C201D105C41EADF
:102BF000002000B2A8F80400A01DC4B2B6F900007D
:102C000040F0080030801A48408900F4C07008B3D2
:102C100005A9601C085C095D40EA012000B238800B
:102C200005A9E01C095C05AAA01C105C41EA002073
:102C300000B2788005A9601D095C201D105C41EA86
:102C4000002000B2B880A01DC4B2B6F9000040F068
:102C5000700030800648807A00F0030018B105A9A2
:102C60000819FFF753FD484600F088FB00202FE7C6
:102C70009C00002070B588B0064601A800F078FFDF
:102C8000BDF804000021C90341EA5045C40344488B
:102C9000007A00F0030056F8200005904048007AC2
:102CA00000F0040010B10598404205903C48007ABD
:102CB000C0F3C10056F8200006903948007A00F0B1
:102CC000200010B10698404206903548007AC0F3C3
:102CD000811056F8200007903148008900F4807078
:102CE00010B10798404207900598C117A0FB042334
:102CF00001FB043100FB0510810041EA9270059050
:102D00000698C117A0FB042301FB043100FB05104A
:102D1000810041EA927006900798C117A0FB042336
:102D200001FB043100FB0510810041EA927007901D
:102D30000598000E8DF808000598000C8DF8090024
:102D40000598000A8DF80A000598C0B28DF80B00AE
:102D50000698000E8DF80C000698000C8DF80D00FA
:102D60000698000A8DF80E000698C0B28DF80F0084
:102D70000798000E8DF810000798000C8DF81100D0
:102D80000798000A8DF812000798C0B28DF813005A
:102D900002AA0C214FF4257001F01EFE08B070BD90
:102DA0009C00002030B585B0044616A207CA02ABCD
:102DB00007C3C82C03DD4FF0FF3005B030BDC8207D
:102DC00090FBF4F0401E85B2280A8DF80000E8B2AE
:102DD0008DF801006A46022140F2162001F0FCFD48
:102DE00010B14FF0FF30E8E702AA0C2140F6C120F5
:102DF00001F0F2FD10B14FF0FF30DEE704488481AE
:102E00000020DAE7FEF2ABC4AAF1DFDFBBAFDFDF01
:102E10009C0000201FB504464848007A00F00300DB
:102E200054F8200001904548007A00F0040010B1E9
:102E30000198404201904148007AC0F3C10054F823
:102E4000200002903D48007A00F0200010B1029866
:102E5000404202903948007AC0F3811054F82000B3
:102E600003903648008900F4807010B10398404206
:102E700003903349019880FB0101800F40EA8100F3
:102E800001902F49029880FB0110820042EA917064
:102E900002902B49039880FB0110820042EA917056
:102EA00003900198000E8DF800000198000C8DF839
:102EB00001000198000A8DF802000198C0B28DF857
:102EC00003006A4604214FF4747001F085FD18B1C7
:102ED0004FF0FF3004B010BD0298000E8DF80000D6
:102EE0000298000C8DF801000298000A8DF802008B
:102EF0000298C0B28DF803006A4604214FF4757041
:102F000001F06AFD10B14FF0FF30E3E70398000EC7
:102F10008DF800000398000C8DF801000398000A5A
:102F20008DF802000398C0B28DF803006A460421B0
:102F30004FF4767001F050FDCCE700009C000020BB
:102F400009E3CA0210B586B0044647A000680390A2
:102F500046A00068029046A00068019045A0006865
:102F6000009004F0030003A9085C8DF8140003A886
:102F7000C4F3C101405C8DF8150003A8C4F38111AE
:102F8000405C8DF8160004F0030002A9085C8DF87F
:102F9000100002A8C4F3C101405C8DF8110002A822
:102FA000C4F38111405C8DF8120005AA032140F2A0
:102FB000264001F011FD18B14FF0FF3006B010BDF2
:102FC00004AA032140F22A4001F006FD10B14FF09F
:102FD000FF30F3E7019805900098049004F0040096
:102FE00058B19DF8140040F001008DF814009DF8D0
:102FF000100040F001008DF8100004F0200058B1DE
:103000009DF8150040F001008DF815009DF81100A5
:1030100040F001008DF8110004F4807058B19DF863
:10302000160040F001008DF816009DF8120040F0E7
:1030300001008DF8120005AA03214FF4886001F009
:10304000CBFC10B14FF0FF30B8E704AA032140F2E7
:10305000314001F0C1FC10B14FF0FF30AEE706483F
:1030600004810020AAE700004CCD6C000CC92C00A4
:1030700036567600264666009C000020F8B50546C8
:103080000E464FF47A7095FBF0F000FB06F4200E2C
:103090008DF80000200C8DF80100200A8DF8020048
:1030A000E0B28DF803006A4604214FF4AE7001F0DF
:1030B00093FCF8BD38B50446052094FBF0F084B2CB
:1030C00020128DF80000E0B28DF801006A4602215E
:1030D0004FF4AD7001F080FC38BD38B504460520D2
:1030E00094FBF0F084B220128DF80000E0B28DF86D
:1030F00001006A4602214FF4AC7001F06DFC38BD4E
:1031000038B504460020009004F0010020B19DF87D
:10311000000040F03000009004F0020020B19DF863
:10312000000040F00C00009004F0040020B19DF875
:10313000000040F0030000906A4601214FF4A470A3
:1031400001F04AFC38BD38B50446012C01DA0124EF
:1031500002E0042C00DD0424601EC0B200906A4628
:10316000012140F24F1001F037FC38BD2DE9FC473A
:1031700006460F4606F0070010B1B7F5C86F03DD2D
:103180004FF0FF30BDE8FC873846FDF705FA814671
:103190005949FDF7A1F88046684600F0C3FC9DF848
:1031A0000000022806D0042816D0082826D01028AF
:1031B00048D135E04FF08D414046FDF75BF8814640
:1031C000FDF719FA84B24D494046FDF753F88146A0
:1031D000FDF711FA85B238E04FF08C414046FDF71B
:1031E00049F88146FDF707FA84B245494046FDF7A4
:1031F00041F88146FDF7FFF985B226E04FF08B419B
:103200004046FDF737F88146FDF7F5F984B23D49B0
:103210004046FDF72FF88146FDF7EDF985B214E041
:103220004FF08A414046FDF725F88146FDF7E3F966
:1032300084B235494046FDF71DF88146FDF7DBF9BC
:1032400085B202E04FF0FF309CE700BF20128DF8FE
:103250000400E0B28DF8050028128DF80600E8B2EF
:103260008DF8070006F00100A0B101AA02214FF479
:10327000EA7001F0B1FB10B14FF0FF3082E70DF1C1
:10328000060202214FF4927001F0A6FB10B14FF03C
:10329000FF3077E706F00200A0B101AA02214FF447
:1032A000EC7001F099FB10B14FF0FF306AE70DF1BF
:1032B000060202214FF4947001F08EFB10B14FF022
:1032C000FF305FE706F00400A0B101AA02214FF42D
:1032D000EE7001F081FB10B14FF0FF3052E70DF1BD
:1032E000060202214FF4967001F076FB10B14FF008
:1032F000FF3047E7002045E7000048430000404614
:103300000000C045000040450000C04438B50446F8
:10331000052094FBF0F085B228128DF80000E8B289
:103320008DF801006A4602214FF4EF7001F054FB62
:1033300038BD38B50446052094FBF0F085B228125C
:103340008DF80000E8B28DF801006A4602214FF4C2
:10335000ED7001F041FB38BD70B504460D46E1B299
:103360000548FEF709F800BF40210348FDF765FF57
:103370000028F9D0204670BD003801407047000099
:103380002DE9F04F87B005460C46914601208DF897
:10339000100000208DF81100FE4A1268517DFD4A90
:1033A0005268107804AB022200F0DDFA20B14FF031
:1033B000FF3007B0BDE8F08FC820FFF7D9F9002033
:1033C0008DF81000F34A1268517CF24A5268107866
:1033D00004AB012200F0C7FA10B14FF0FF30E8E76C
:1033E000EC4A12685179EB4A5268107804AB01221A
:1033F00000F0B9FA10B14FF0FF30DAE7E54A126891
:10340000517DE44A5268107804AB012200F0ABFA17
:1034100010B14FF0FF30CCE7DE4A1268917EDD4AF2
:103420005268107804AB012200F09DFA10B14FF001
:10343000FF30BEE7D74A12681179D64A5268107831
:1034400004AB012200F08FFA10B14FF0FF30B0E76B
:103450000C208DF81000CF4A12681179CD4A5268BD
:10346000107804AB012200F07EFA10B14FF0FF306B
:103470009FE70F20FFF77CF9C648406B407A8DF834
:103480001000C44A12689178C24A5268107804AB9E
:10349000012200F068FA10B14FF0FF3089E7BD4813
:1034A000406B007A8DF81000BA4A12685178B94A18
:1034B0005268107804AB012200F055FA10B14FF0B9
:1034C000FF3076E7B9F1000F07D0B248406B807A41
:1034D00040F0E0008DF8100004E0AE48406B807AC8
:1034E0008DF81000AB4A12689179AA4A5268107898
:1034F00004AB012200F037FA10B14FF0FF3058E76B
:10350000B9F1000F07D0A348406BC07A40F0E0004B
:103510008DF8100003E0A048C07A8DF810009D4A95
:103520001268D1799B4A5268107804AB012200F0EE
:103530001AFA10B14FF0FF303BE7B9F1000F02D09B
:10354000C820FFF715F940208DF81000914A126845
:103550001179904A5268107804AB012200F003FA06
:1035600010B14FF0FF3024E778208DF81000894A21
:1035700012685179874A5268107804AB012200F032
:10358000F2F910B14FF0FF3013E783498889FFF754
:10359000EFF800208DF810007E4A126851797D4ABC
:1035A0005268107804AB012200F0DDF910B14FF041
:1035B000FF30FEE6774A1268117B764A526810782F
:1035C00004AB022200F0BCF910B14FF0FF30F0E67E
:1035D0009DF811009DF8101040EA012B0C209BFB78
:1035E000F0F0C6B20020A86068602860A06060604B
:1035F0002060824665E0674A1268517B654A5268DE
:10360000107804AB0C2200F09BF910B14FF0FF30A2
:10361000CFE69DF811009DF8101040EA012000B29D
:10362000ADF808009DF813009DF8121040EA012043
:1036300000B2ADF80A009DF815009DF8141040EA9C
:10364000012000B2ADF80C00BDF908102068084454
:103650002060BDF90A10606808446060BDF90C1074
:10366000A0680844A0609DF817009DF8161040EA75
:10367000012000B2ADF800009DF819009DF8181067
:1036800040EA012000B2ADF802009DF81B009DF851
:103690001A1040EA012000B2ADF80400BDF9001094
:1036A000286808442860BDF902106868084468600A
:1036B000BDF90410A8680844A8600AF1010000F0F0
:1036C000FF0AB24597DB3448D0F800C02868C1171C
:1036D000090441EA10410704624600233846FCF71A
:1036E00021FD32460023CDE90201FCF71BFD2860D5
:1036F0002948D0F800C06868C117090441EA1041A0
:103700000704624600233846FCF70CFD32460023CE
:10371000CDE90201FCF706FD68601F48D0F800C043
:10372000A868C117090441EA104107046246002352
:103730003846FCF7F7FC32460023CDE90201FCF7DE
:10374000F1FCA8601448D0F804C02168C817000430
:1037500040EA11480F046246002338464146FCF710
:10376000E1FC32460023CDE90201FCF7DBFC2060DE
:103770000948D0F804C06068C117090441EA104143
:103780000704624600233846FCF7CCFC324600238F
:1037900004E00000140000207C4E0008CDE9020186
:1037A000FCF7C0FC60601148D0F804C0A068C117E5
:1037B000090441EA10410704624600233846FCF739
:1037C000B1FC32460023CDE90201FCF7ABFCA0605E
:1037D000A068002804DDA068A0F58030A06003E0A8
:1037E000A06800F58030A0600020E2E57C4E000873
:1037F00008B501210820FDF79DFBC020ADF80000B1
:1038000002208DF8020014208DF80300694602485A
:10381000FDF78CF908BD0000000C01402DE9F041D6
:1038200005460F4614461E46FDF796FA10B90020CD
:10383000BDE8F081002141EA4501C8B2FDF762FA16
:10384000FDF7D0FA18B9FDF7B3FA0020F0E73846D3
:10385000FDF758FAFDF7C6FAFDF77EFA012101EBF4
:103860004501C8B2FDF74EFAFDF7BCFA0CE0FDF7D2
:103870001FFA3070012C02D1FDF700FA01E0FDF7CC
:10388000E3F9761C601EC4B2002CF0D1FDF790FA6B
:103890000120CDE770B504460D461646FDF75CFAEB
:1038A00008B9002070BD002141EA4401C8B2FDF70B
:1038B00029FAFDF797FA18B9FDF77AFA0020F1E72F
:1038C0002846FDF71FFAFDF78DFA3046FDF71AFA84
:1038D000FDF788FAFDF76CFA0120E3E72DE9F041E6
:1038E00005460E4617469846FDF736FA10B90020F1
:1038F000BDE8F081002141EA4501C8B2FDF702FAB6
:10390000FDF770FA18B9FDF753FA0020F0E73046DA
:10391000FDF7F8F9FDF766FA00240BE018F804004B
:10392000FDF7F0F9FDF75EFA18B9FDF741FA00204E
:10393000DEE7641CBC42F1DBFDF73AFA0120D7E771
:103940002DE9F04104460D4616461F463B463246D9
:1039500029462046FFF762FF10B10020BDE8F08144
:103960004FF0FF30FAE72DE9F04104460D461646C8
:103970001F463B46324629462046FFF7AFFF10B1AF
:103980000020BDE8F0814FF0FF30FAE770B5054642
:10399000284600F00FF80446E81C00F00BF844EA53
:1039A000C00084B2A81D00F005F844EA801084B27B
:1039B000204670BD014691F90020002A01DD00205B
:1039C0001EE091F90020002A01DA042018E091F9A4
:1039D0000120002A01DD012012E091F90120002AD6
:1039E00001DA05200CE091F90220002A01DD022015
:1039F00006E091F90220002A01DA062000E0072003
:103A000070470000FDF7B8FBFFF7F2FE0A20FEF753
:103A1000AFFE0120FDF718FA30E0FDF733FD18A0E6
:103A2000FDF780FE18480068FCF718FE04462246A1
:103A30000B4616A0FDF776FE15A0FDF773FE16489F
:103A40000068FCF70BFE044622460B460FA0FDF76C
:103A500069FE12A0FDF766FE12480068FCF7FEFD45
:103A6000044622460B4609A0FDF75CFEFDF788FCE4
:103A70000D48B0F900100DA0FDF754FECDE7000091
:103A800050697463683A00005000002025662000E9
:103A9000526F6C6C3A000000540000205961773A74
:103AA00000000000580000204C0000204D3A256422
:103AB000200A000070B50446002624F001041848CE
:103AC00090F8240008B1002070BD1548807A10B924
:103AD0004FF0FF30F8E71248057C807A204010490B
:103AE00008740846007CA04202D04FF0FF3600E088
:103AF000002614B90A48007D18B1012000F0F4FF37
:103B000002E0002000F0F0FF3CB100F001FB20B12A
:103B1000034805744FF0FF30D6E73046D4E7000085
:103B20001400002001461148407A30B1012807D026
:103B3000022808D003280CD108E0022008700BE00E
:103B40000420087008E00820087005E010200870C4
:103B500002E04FF0FF30704700BF0448C07C18B14E
:103B600008784006000E08700020F4E714000020DA
:103B700001461348407A30B1012808D002280AD003
:103B8000032810D10BE04FF4804008800EE041F68E
:103B90009C7008800AE04FF48050088006E04FF4E3
:103BA0000060088002E04FF0FF30704700BF04481B
:103BB000C07C10B10888401008800020F5E70000A4
:103BC0001400002001460248007C08700020704765
:103BD0001400002001460F48007A30B1012807D0B8
:103BE000022809D003280FD10AE0FA2008800EE04D
:103BF0004FF4FA7008800AE04FF47A70088006E00B
:103C00004FF4FA60088002E00020088000BF00BF87
:103C1000002070471400002001460E48007A30B1A1
:103C2000012807D0022808D003280CD108E00A4850
:103C300008600BE00948086008E00948086005E0F2
:103C40000848086002E04FF0FF30704700BF0020D6
:103C5000FBE7000014000020000003430000834243
:103C6000333303423333834101461248C07A082874
:103C700017D2DFE800F01704070A0D101318BC2054
:103C8000088013E06220088010E02A2008800DE000
:103C9000142008800AE00A20088007E00520088038
:103CA00004E000BF00BF0020088000BF00BF00206C
:103CB00070470000140000200146064890F82400D8
:103CC00010B14FF0FF3070470248C08908800020D3
:103CD000F9E70000140000201CB580208DF80000DA
:103CE000454A1268517D444A526810786B46012259
:103CF000FFF739FE10B14FF0FF301CBD6420FEF716
:103D000037FD00208DF800003B4A1268517D3A4A89
:103D1000526810786B460122FFF725FE10B14FF074
:103D2000FF30EAE748208DF80000334A1268117A24
:103D3000314A526810786B460122FFF714FE10B129
:103D40004FF0FF30D9E7FF212B488172FF202A492D
:103D50000872FF2128484172C1724FF6FF71C1817C
:103D6000FF21017481744FF6FF71018501210173F8
:103D700080F82210002180F823104175017516305B
:103D8000016041608160163880F8241080F82510A9
:103D9000C1844FF4FA6000F055FC10B14FF0FF30D1
:103DA000ABE7022000F0EEFA10B14FF0FF30A4E7CD
:103DB0002A2000F0C1FC10B14FF0FF309DE7322007
:103DC00000F0FCFC10B14FF0FF3096E70020FFF749
:103DD00071FE10B14FF0FF308FE700F0CDFE0A20EA
:103DE00000F0B8FB10B14FF0FF3086E7002000F084
:103DF0003FFD002081E70000140000202DE9F04382
:103E000085B005460E4690469946294890F825000B
:103E100020B14FF0FF3005B0BDE8F08316B94FF088
:103E2000FF30F8E7002423E0281B102801DD1020D4
:103E300000E0281B87B232193946204600F0CCFD3D
:103E400010B14FF0FF30E6E701AA3946204600F0F6
:103E50001FF910B14FF0FF30DDE730193A4601A9E4
:103E6000FCF7A3F910B16FF00100D4E7E01984B2B8
:103E7000AC42D9DB4FEA28208DF8000008F0FF00A3
:103E80008DF801000A4A1268517F094A5268107879
:103E90006B460222FFF767FD10B14FF0FF30BAE723
:103EA0000121034880F82510A0F826900020B2E7F1
:103EB0001400002038B50446282C02DD4FF0FF30F6
:103EC00038BDDCB9002000F001FC00208DF80000B6
:103ED00007208DF801003D4A1268517D3B4A526827
:103EE00010786B460222FFF73EFD10B14FF0FF3015
:103EF000E6E70021354801750020E1E7012000F0E8
:103F0000E5FB012C03D102208DF8000033E0022CE8
:103F100003D103208DF800002DE0052C03DC0420E4
:103F20008DF8000027E00A2C03DC05208DF8000046
:103F300021E0142C03DC06208DF800001BE0282C67
:103F400003DC07208DF8000015E0502C03DC08206E
:103F50008DF800000FE0A02C03DC09208DF8000094
:103F600009E0B4F5A07F03DC0A208DF8000002E030
:103F70000B208DF80000154A1268517A134A5268D6
:103F800010786B460122FFF7EEFC10B14FF0FF30C6
:103F900096E720208DF800000C4A1268517D0B4AEC
:103FA000526810786B460122FFF7DDFC10B14FF02C
:103FB000FF3085E708210548817200210173012146
:103FC00001750020FFF776FD002079E7140000203E
:103FD000F8B504460F4616462C4890F8240010B950
:103FE0004FF0FF30F8BD2948807A10B94FF0FF300C
:103FF000F8E7264A1268117B244A526810786B460B
:104000000222FFF79DFC10B14FF0FF30EAE79DF868
:1040100001009DF8001040EA0125A54203DA0020C6
:104020003070401EDEE7194840684088B5EB600FED
:1040300017DD164A1268D17C144A526810786B4614
:104040000122FFF77DFC10B14FF0FF30CAE79DF869
:10405000000000F0100020B100F05AF86FF00100ED
:10406000C0E7E2B2094B1B68597B084B5B681878C4
:104070003B46FFF765FC10B14FF0FF30B2E795FB10
:10408000F4F0401E30700020ACE700001400002067
:10409000F8B504460D46164616B94FF0FF30F8BD88
:1040A0001A48807A10B94FF0FF30F8E720128DF8E7
:1040B0000000E0B28DF801009DF80100284413498A
:1040C00049684989884202DD4FF0FF30E7E70F4A2F
:1040D0001268D17E0D4A526810786B460222FFF7B3
:1040E00042FC10B14FF0FF30D9E7EAB2074B1B6832
:1040F000197E064B5B6818783346FFF721FC10B138
:104100004FF0FF30CBE70020C9E70000140000208B
:1041100008B57048807A10B94FF0FF3008BD002014
:1041200000906C4A1268517C6A4A526810786B465B
:104130000122FFF718FC10B14FF0FF30EEE7654A9F
:1041400012685179634A526810786B460122FFF772
:104150000AFC10B14FF0FF30E0E75E4A12681179B7
:104160005C4A526810786B460122FFF7FCFB10B1E5
:104170004FF0FF30D2E7574890F82400002853D082
:104180000C200090534A12681179524A52681078F4
:104190006B460122FFF7E7FB10B14FF0FF30BDE7A0
:1041A0003220FEF7E5FAC02000904A48807A00F0FD
:1041B000010020B19DF8000040F020000090454A29
:1041C00012681179434A526810786B460122FFF752
:1041D000CAFB10B14FF0FF30A0E73E48407C10B161
:1041E0000220009001E0002000903A4A1268517CC1
:1041F000384A526810786B460122FFF7B4FB10B1C1
:104200004FF0FF308AE700200090324A126851795F
:10421000304A526810786B460122FFF7A4FB002851
:1042200055D04FF0FF3079E704200090294A1268FA
:104230001179284A526810786B460122FFF793FBE8
:1042400010B14FF0FF3069E72248807C20B9214847
:10425000807A00F0010010B94020009001E0602059
:1042600000901C4A126811791A4A526810786B46FD
:104270000122FFF778FB10B14FF0FF304EE73220FC
:10428000FEF776FA1348407C10B10120009001E05F
:10429000002000900F4A1268517C0E4A5268107834
:1042A0006B460122FFF75FFB10B14FF0FF3035E79F
:1042B000084A12685179074A52681078054B103342
:1042C0000122FFF750FB10B14FF0FF3026E700202E
:1042D00024E70000140000202DE9F04186B00746D5
:1042E0008846274890F8240020B1002000F062F9A9
:1042F000012400E0002403A8FFF76CFC05A8FFF7E9
:1043000011FC01A8FFF7B0FC02A8FFF7D5FC1C4880
:10431000867A04A8FFF756FC002241463846FFF78C
:104320002FF80725FF2016490872FF211448417213
:10433000C1724FF6FF71C181FF21817201740121A9
:104340000173BDF80C0000F07DF99DF8140000F039
:1043500019F8BDF8040000F0EFF9BDF8080000F00E
:104360002DFA304600F084FA9DF81000FFF7A2FB0A
:1043700014B1012000F01EF9284606B0BDE8F08116
:104380001400002038B504461E48807A10B94FF05A
:10439000FF3038BD022C06D0042C07D0082C08D0E2
:1043A000102C0CD108E0002000900BE008200090B9
:1043B00008E01020009005E01820009002E04FF087
:1043C000FF30E6E700BF0F48407A9DF80010B0EBE1
:1043D000E10F01D10020DCE70A4A1268D179094ACD
:1043E000526810786B460122FFF7BDFA10B14FF00A
:1043F000FF30CEE79DF80000C11002484172002056
:10440000C7E700001400002038B504465048807CFF
:10441000A04201D1002038BD002C46D04C4A126881
:1044200011794B4A526810786B460122FFF788FADF
:1044300010B14FF0FF30EEE79DF8000020F02000B3
:104440000090434A12681179414A526810786B46CD
:104450000122FFF788FA10B14FF0FF30DBE70320AD
:10446000FEF786F902200090394890F8220020B12A
:104470009DF8000040F080000090354890F823003F
:1044800020B19DF8000040F030000090304A1268E2
:10449000D17D2F4A526810786B460122FFF763FAEC
:1044A000002851D04FF0FF30B5E7294A1268117942
:1044B000274A526810786B460122FFF741FA10B183
:1044C0004FF0FF30A7E72248807A00F0010028B1C2
:1044D0009DF8000040F02000009004E09DF80000EE
:1044E00020F0200000901A4A12681179184A526888
:1044F00010786B460122FFF736FA10B14FF0FF300B
:1045000089E70320FEF734F9114890F8220010B132
:104510008020009001E0002000900D4890F82300DA
:1045200020B19DF8000040F030000090084A126869
:10453000D17D074A526810786B460122FFF713FAC3
:1045400010B14FF0FF3066E701488474002062E745
:104550001400002038B504462CB11548C089A0428B
:1045600001DB642C02DD4FF0FF3038BD1048C089FC
:1045700090FBF4F0401EC0B200900D4A126892F811
:1045800024100B4A526810786B460122FFF7EBF9B2
:1045900010B14FF0FF30E8E70548C1899DF80000F1
:1045A000401C91FBF0F081B2014801850020DCE75E
:1045B0001400002038B50446214890F82400A04299
:1045C00001D1002038BD24B31D4890F8250010B952
:1045D0004FF0FF30F6E7002000F086FA0020FFF7EA
:1045E00013FF1749C88C00F0E9F800200090144927
:1045F000496808786B4601222321FFF7B4F90121AD
:104600000F4880F82410012000F06EFAFFF780FDBB
:1046100013E0002000F068FA0948007C0090084987
:10462000496808786B4601222321FFF79CF9002195
:10463000034880F82410FFF76BFD0020C2E700005C
:104640001400002038B504461F48807A10B94FF096
:10465000FF3038BDFA2C09D0B4F5FA7F09D0B4F593
:104660007A7F09D0B4F5FA6F0CD108E000200090F1
:104670000BE00820009008E01020009005E01820D2
:10468000009002E04FF0FF30E3E700BF0E48007AF1
:104690009DF80010B0EBE10F01D10020D9E70A4AE4
:1046A00012689179084A526810786B460122FFF728
:1046B0005AF910B14FF0FF30CBE79DF80000C01061
:1046C000014908720020C4E71400002038B50446F0
:1046D000184890F82300A04201D1002038BD14B141
:1046E0003020009001E0002000901248807C20B132
:1046F0009DF8000040F0020000900E4890F8220063
:1047000020B19DF8000040F080000090094A126836
:10471000D17D084A526810786B460122FFF723F9D1
:1047200010B14FF0FF30D9E7024880F82340002055
:10473000D4E700001400002038B504461E48807AF3
:1047400010B94FF0FF3038BDBC2C02DB01200090C7
:1047500015E0622C02DB0220009010E02A2C02DB24
:10476000032000900BE0142C02DB0420009006E0F4
:104770000A2C02DB0520009001E0062000900E4884
:10478000C07A9DF80010884201D10020DBE70A4A78
:1047900012689178084A526810786B460122FFF738
:1047A000E2F810B14FF0FF30CDE79DF8001002485D
:1047B000C1720020C7E700001400002038B504468D
:1047C0002A48807A10B94FF0FF3038BD274890F85A
:1047D000240010B14FF0FF30F7E72448007D50B1BE
:1047E00034B1282C04DCE0B2FFF764FB0020ECE7D6
:1047F0000020FFF75FFB042C01DA042404E0B4F589
:104800007A7F01DD4FF47A744FF47A7090FBF4F004
:10481000401EC0B20090154A12685178134A52687F
:1048200010786B460122FFF79EF810B14FF0FF3071
:10483000CBE79DF80000401C4FF47A7191FBF0F03B
:1048400081B20A48C1810146098D642902DA014614
:10485000098D00E064210846FFF77CFE0349C98901
:104860004810FFF769FF0020AFE7000014000020A8
:104870001CB5044604F0700010B10120019005E061
:1048800014B10020019001E040200190514A1268CB
:10489000517D504A5268107801AB0122FFF763F84E
:1048A00020B100214B488172481E1CBD9DF80400B8
:1048B00020F04001474801730020019004F04000BF
:1048C00020B99DF8040040F00400019004F020009D
:1048D00020B99DF8040040F00200019004F010009F
:1048E00020B99DF8040040F00100019004F0080098
:1048F00020B99DF8040040F038000190354A126854
:10490000917D344A5268107801AB0122FFF72BF8F1
:1049100020B100212F488172481EC6E724B1082C1F
:1049200002D00020FFF7D2FE2A4A12681179294AE4
:10493000526810786B460122FFF702F810B14FF071
:10494000FF30B2E704F0010038B1112001909DF86A
:10495000000040F02000009006E0102001909DF83B
:10496000000020F0200000901A4890F8240028B1A0
:104970009DF8000040F08000009004E09DF80000E9
:1049800020F080000090134A126892F82610114A15
:104990005268107801AB0122FEF7E5FF10B14FF02D
:1049A000FF3082E70B4A126811790A4A5268107880
:1049B0006B460122FEF7D7FF10B14FF0FF3074E7CE
:1049C00004488472002101753220FDF7D1FE0020D9
:1049D0006BE7000014000020F8B504460D461646AB
:1049E00016B94FF0FF30F8BD1A48807A10B94FF071
:1049F000FF30F8E720128DF80000E0B28DF80100DA
:104A00009DF801002844134949684989884202DD1C
:104A10004FF0FF30E7E70F4A1268D17E0D4A526827
:104A200010786B460222FEF79EFF10B14FF0FF3068
:104A3000D9E7EAB2074B1B68197E064B5B6818780A
:104A40003346FEF790FF10B14FF0FF30CBE7002068
:104A5000C9E700001400002070B588B002A905A8BD
:104A6000FFF73AFC0446072C3CD101A8FFF7D4F825
:104A70000598FBF788FD06460199FBF7FBFB054609
:104A8000FBF7A0FD05900698FBF77DFD0646019912
:104A9000FBF7F0FB0546FBF795FD06900798FBF743
:104AA00072FD06460199FBF7E5FB0546FBF78AFD1B
:104AB000079005A8FEF7AEF96846FFF759F8BDF86C
:104AC0000010029848430290BDF800100398484334
:104AD0000390BDF8001004984843049002A8FEF724
:104AE000C9F800BF08B070BD38B50446214890F839
:104AF0002400C0B114B10220009001E00020009019
:104B00001C4A1268517C1B4A526810786B4601227D
:104B1000FEF729FF10B14FF0FF3038BD9DF80010AF
:104B20001448417423E01348807A10B94FF0FF30E5
:104B3000F3E724B10F48407C08B10020EDE714B141
:104B40000120009001E0002000900A4A1268517C88
:104B5000084A526810786B460122FEF704FF10B134
:104B60004FF0FF30D9E79DF8001002484174002053
:104B7000D3E700001400002038B50120FFF744FC03
:104B80000C240EE06B46012200212046FEF7D8FEE1
:104B9000054625B99DF80000482800D103E0601CB7
:104BA000C4B20F2CEEDD00BF0F2C05DD81A0FCF799
:104BB000B9FD4FF0FF3038BD834880F82A401020FF
:104BC0008DF80000804991F82A006B4601220A21E5
:104BD000FEF7C9FE10B14FF0FF30ECE70120FDF702
:104BE000C7FD1F208DF80000774991F82A006B4619
:104BF00001220A21FEF7B7FE10B14FF0FF30DAE7CD
:104C00000120FDF7B5FD704991F82A006B4603229B
:104C10001021FEF795FE10B14FF0FF30CBE79DF865
:104C200000008030684988859DF801108031664811
:104C3000C1859DF802108031018610208DF800009A
:104C4000614991F82A006B4601220A21FEF78BFE8A
:104C500010B14FF0FF30AEE70120FDF789FD0020D5
:104C6000FFF7D2FB40208DF80000574A1268917E72
:104C7000554A526810786B460122FEF774FE10B157
:104C80004FF0FF3097E7504890F82A0040F080003E
:104C90008DF800004C4A1268917F4B4A5268107898
:104CA0006B460122FEF75FFE10B14FF0FF3082E746
:104CB00002208DF80000444A1268D17F424A5268AF
:104CC00010786B460122FEF74EFE10B14FF0FF3018
:104CD00071E788208DF800003B4A126892F8201096
:104CE000394A526810786B460122FEF73CFE10B13B
:104CF0004FF0FF305FE7344890F82A008DF800004D
:104D0000314A126892F821102F4A526810786B4687
:104D10000122FEF728FE10B14FF0FF304BE70A20CA
:104D20008DF80000284A126892F82210264A52682C
:104D300010786B460122FEF716FE10B14FF0FF30DF
:104D400039E781208DF800001F4A126892F823107D
:104D50001D4A526810786B460122FEF704FE10B11E
:104D60004FF0FF3027E711208DF80000164A126837
:104D700092F82610144A526810786B460122FEF70A
:104D8000F2FD10B14FF0FF3015E703208DF8000061
:104D90000D4A126892F827100B4A526810786B4639
:104DA0000122FEF7E0FD10B14FF0FF3003E70020D5
:104DB00001E70000436F6D70617373206E6F7420A4
:104DC000666F756E642E0A00140000202DE9F04114
:104DD00006460F46FBF746FE041E0D4618BF01208F
:104DE000284320F00040C0F17F6000F1E040C00F98
:104DF0000ED0301C18BF0120384320F00040C0F115
:104E00007F6000F1E040C00F04BF0120FCF726FDE9
:104E100020462946BDE8F08108B54FF4A060FCF7B4
:104E20007DF825208DF8000002208DF8010000207B
:104E30008DF8020001208DF803006846FCF736F873
:104E400008BD000075191A0C6A231B1C1D1E1F20AB
:104E50007274433B4138393A696B6C376F77246D14
:104E60006E700000000000000000000000006800FC
:104E700000048000410100000001000083000000E8
:104E80000008000000010018320005000000204169
:104E90000000D242295C0F3E9A99993E3333733F0A
:104EA000295C0F3E0000700000000024000000029A
:104EB0000003000000650054FFEF0000FA80000BC3
:104EC00012820001030C30C30E8C8CE914D5400211
:104ED00013710F8E3883F8833000F883258EF883A2
:104EE0003000F883FFFFFFFF0FFEA9D62400040067
:104EF0001A8279A10000003CFFFF000000100000B2
:104F000038836FA2003E03304000000002CAE3096C
:104F10003E80000020000000000000004000000073
:104F200060000000000C0000000C186E00000692EB
:104F30000A16C0DFFFFF0256FD8CD377FFE1C4964F
:104F4000E0C5BEAA00000000FFFF0B2B00001657B3
:104F5000000003594000000000001DFA00026C1D13
:104F6000000000003FFFDFEB003EB3B6000D2278EB
:104F700000002F3C00000000001942B5000039A2DB
:104F80000000B365D90E9FC91DCF4C34300000001E
:104F9000500000003BB67AE80064000000C8000042
:104FA00000000000100000001000FA921000225EC5
:104FB000000D229F0001000000320000FF460000AB
:104FC00063D400001000000004D6000004CC0000F0
:104FD00004CC00000000107200000040000000003F
:104FE00000000000000600020005000700000000AD
:104FF00000640000000000000000000500050064DF
:105000000020000000000000000000000000400040
:105010000000030000000032F8980000FF65000067
:10502000830F0000FF9BFC00000000000000000058
:105030000000000000000000000000000000000070
:105040000000000000000000000000000000000060
:105050000000100040000000000000060000B26ADE
:10506000000200000001FB830068000000D9FC0082
:105070007CF1FF830000000000650000006403E88D
:1050800000640028000000250000000016A00000B9
:105090000000100000001000002F0000000001F4CC
:1050A0000000100000280000FFFF4581FFFFFA729A
:1050B0000000000000000000004400050005BAC622
:1050C000004778A200000001000000000000060078
:1050D000000000140000254D002F706D000005AE8B
:1050E000000C02D0000000000000000000000000E2
:1050F00000000000001B0000000000000000000095
:105100000000000000640000000800000000000033
:10511000000000000000000000000000000000008F
:10512000000000000000000000000000000000007F
:10513000000000000000000000000000000000006F
:10514000000000000000000000000000000000005F
:10515000000000000000000000000000000000004F
:1051600000000000001B0000000000000000000024
:10517000000E000E00000AC700040000000000320C
:10518000FFFFFF9C00000B2B00000002000000014D
:1051900000000064FFE500000000000000000000C7
:1051A00000000000000000010000000000010000FD
:1051B000000000000001800000018000000180006C
:1051C000002426D3000000000000000000060010AC
:1051D0000096003C000000000000000000000000FD
:1051E000000000000C0A4E68CDCF770950166759B1
:1051F000C619CE8200000000000000000000000080
:1052000000000000000000000000000017D784002C
:10521000030000000000000000000000C7938F9D05
:105220001E1B1C1900000000000000000000000010
:1052300000000000000000000000000002031885CC
:105240000000400000000003000000030000000018
:10525000000000004000000000000000000000000E
:10526000000000000000000000000000000000003E
:10527000000000000000000000000000000000002E
:105280000000000000000000677DDF7E72902E5558
:105290004CF6E6880000000000000000000000005E
:1052A00000000000D8DCB4B8B0D8B9ABF3F8FAB35A
:1052B000B7BB8E9EAEF132F51BF1B4B8B08097F15A
:1052C000A9DFDFDFAADFDFDFF2AAC5CDC7A90CC9DE
:1052D0002C97F1A989264666B28999A92D557DB0EA
:1052E000B08AA896365676F1BAA3B4B280C0B8A8F0
:1052F0009711B28398BAA3F0240844106418B2B985
:10530000B49883F1A329557DBAB5B1A38393F00076
:105310002850F5B2B6AA839328547CF1B9A382939E
:1053200061BAA2DADEDFDB819AB9AEF5606870F1AE
:10533000DABAA2DFD9BAA2FAB9A38292DB31BAA251
:10534000D9BAA2F8DF85A4D0C1BBAD83C2C5C7B8A6
:10535000A2DFDFDFBAA0DFDFDFD8D8F1B8AAB38DD4
:10536000B4980D355DB2B6BAAF8C96198F9FA70E63
:10537000161EB49AB8AA872C547CBAA4B08AB691E7
:10538000325676B28494A4C808CDD8B8B4B0F19996
:1053900082A82D557D98A80E161EA22C547C92A48E
:1053A000F02C5078F184A898C4CDFCD80DDBA8FC73
:1053B0002DF3D9BAA6F8DABAA6DED8BAB2B686966E
:1053C000A6D0F3C841DAA6C8F8D8B0B4B882A8927B
:1053D000F52C548898F135D9F418D8F1A2D0F8F901
:1053E000A884D9C7DFF8F883C5DADF69DF83C1D8BD
:1053F000F40114F1A8824EA884F311D182F5D99258
:10540000289788F109F41C1CD884A8F3C0F9D1D9D5
:105410009782F129F40DD8F3F9F9D1D982F4C203B6
:10542000D8DEDF1AD8F1A2FAF9A88498D9C7DFF834
:10543000F8F883C7DADF69DFF883C3D8F40114F121
:1054400098A8822EA884F311D182F5D9925097881A
:10545000F109F41CD884A8F3C0F8F9D1D99782F1E6
:1054600049F40DD8F3F9F9D1D982F4C403D8DEDFB9
:10547000D8F1AD8898CCA809F9D98292A8F57CF129
:10548000883ACF944A6E98DB6931DAADF2DEF9D80A
:105490008795A8F221D1DAA5F9F417D9F1AE8ED00B
:1054A000C0C3AE82C684C3A88595C8A588F2C0F1E2
:1054B000F4010EF18E9EA8C63E56F554F18872F4A2
:1054C0000115F19845856EF58E9E0488F142985A33
:1054D0008E9E068869F4011CF1981E1108D0F5040F
:1054E000F11E970202983625DBF9D985A5F3C1DABA
:1054F00085A5F3DFD88595A8F309DAA5FAD88292B5
:10550000A8F578F1881A849F26889821DAF41DF38B
:10551000D8879F39D1AFD9DFDFFBF9F40CF3D8FA84
:10552000D0F8DAF9F9D0DFD9F9D8F40BD8F3879F9E
:1055300039D1AFD9DFDFF41DF3D8FAFCA869F9F946
:10554000AFD0DADEFAD9F88F9FA8F1CCF398DB451B
:10555000D9AFDFD0F8D8F18F9FA8CAF38809DAAFA6
:105560008FCBF8D8F2AD978D0CD9A5DFF9BAA6F399
:10557000FAF412F2D8950DD1D9BAA6F3FADAA5F257
:10558000C1BAA6F3DFD8F1BAB2B68696A6D0CAF3EE
:1055900049DAA6CBF8D8B0B4B8D8AD84F2C0DFF100
:1055A0008FCBC3A8B2B68696C8C1CBC3F3B0B488BC
:1055B00098A821DB718D9D71859521D9ADF2FAD81E
:1055C0008597A828D9F408D8F28D29DAF405D9F2FC
:1055D00085A4C2F2D8A88D9401D1D9F411F2D8874C
:1055E00021D8F40AD8F28498A8C801D1D9F411D8E6
:1055F000F3A4C8BBAFD0F2DEF8F8F8F8F8F8F8F882
:10560000D8F1B8F6B5B9B08A95A3DE3CA3D9F8D8DD
:105610005CA3D9F8D87CA3D9F8D8F8F9D1A5D9DFFB
:10562000DAFAD8B18530F7D9DED8F830ADDADED87D
:10563000F2B48C99A32D557DA083DFDFDFB591A057
:10564000F629D9FBD8A0FC29D9FAD8A0D051D9F88D
:10565000D8FC51D9F9D879D9FBD8A0D0FC79D9FA9E
:10566000D8A1F9F9F9F9F9A0DADFDFDFD8A1F8F864
:10567000F8F8F8ACDEF8ADDE8393AC2C547CF1A8DE
:10568000DFDFDFF69D2CDAA0DFD9FADB2DF8D8A812
:1056900050DAA0D0DED9D0F8F8F8DB55F8D8A878E1
:1056A000DAA0D0DFD9D0FAF8F8F8F8DB7DF8D89C8A
:1056B000A88CF530DB38D9D0DEDFA0D0DEDFD8A86B
:1056C00048DB58D9DFD0DEA0DFD0DED8A868DB7099
:1056D000D9DFDFA0DFDFD8F1A888902C547C98A810
:1056E000D05C38D1DAF2AE8CDFF9D8B087A8C1C16E
:1056F000B188A8C6F9F9DA36D8A8F9DA36D8A8F9FF
:10570000DA36D8A8F9DA36D8A8F9DA36D8F78D9D7E
:10571000ADF818DAF2AEDFD8F7ADFA30D9A4DEF979
:10572000D8F2AEDEFAF983A7D9C3C5C7F1889BA723
:105730007AADF7DEDFA4F8849408A797F300AEF201
:105740009819A488C6A39488F632DFF28393DB0904
:10575000D9F2AADFD8D8AEF8F9D1DAF3A4DEA7F1EE
:10576000889B7AD8F38494AE19F9DAAAF1DFD8A825
:1057700081C0C3C5C7A39283F628ADDED9F8D8A3EC
:1057800050ADD9F8D8A378ADD9F8D8F8F9D1A1DAC5
:10579000DEC3C5C7D8A18194F818F2B089ACC3C5DF
:1057A000C7F1D8B8B4B09786A8319B069907AB97D4
:1057B00028889BF00C201440B0B4B8F0A88A9A282E
:1057C0005078B79BA82951792470594469386448A6
:1057D00031F1BBAB88002C547CF0B38BB8A8042803
:1057E0005078F1B088B49726A85998BBABB38B0218
:1057F000264666B0B8F08A9CA82951798B29517940
:105800008A2470598B2058718A4469388B394068D2
:105810008A6448318B30496088F1AC002C547CF0AC
:105820008CA804285078F1889726A85998AC8C0247
:10583000264666F0899CA829517924705944693814
:10584000644831A98809205970AB11384069A819FA
:105850003148608CA83C415C207C00F18798198617
:10586000A86E767EA999882D557DD8B1B5B9A3DFEC
:10587000DFDFAED0DFAAD0DEF2ABF8F9D9B087C453
:10588000AAF1DFDFBBAFDFDFB9D8B1F1A3978E603C
:10589000DFB084F2C8F8F9D9DED89385F14AB18334
:1058A000A308B5839A0810B79F10D8F1B0BAAEB06C
:1058B0008AC2B2B68E9EF1FBD9F41DD8F9D90CF18B
:1058C000D8F8F8AD61D9AEFBD8F40CF1D8F8F8AD42
:1058D00019D9AEFBDFD8F416F1D8F8AD8D61D9F443
:1058E000F4ACF59C9C8DDF2BBAB6AEFAF8F40BD86D
:1058F000F1AED0F8AD51DAAEFAF8F1D8B9B1B6A33D
:10590000839C08B9B1839AB5AAC0FD3083B79F10B4
:10591000B58B93F20202D1ABDADED8F1B080BAAB2C
:10592000C0C3B284C1C3D8B1B9F38BA391B609B4D3
:10593000D9ABDEB0879CB9A3DDF1B38B8B8B8B8B9E
:10594000B087A3A3A3A3B28BB69BF2A3A3A3A3A3E5
:10595000A3A3A3A3A3F1B087B59AA3F39BA3A3DC4E
:10596000BAACDFB9A3A3A3A3A3A3A3A3A3A3A3A395
:10597000A3A3A3A3D8D8D8BBB3B7F1AAF9DAFFD9A8
:10598000809AAA28B48098A720B79787A86688F03D
:105990007951F1902C870CA781976293F071716017
:1059A00085940129517990A5F1284C6C870C9518A4
:1059B0008578A38390284C6C886CD8F3A28200F27F
:1059C00010A8921980A2F2D926D8F188A84DD948FA
:1059D000D896A83980D93CD89580A839A68698D978
:1059E0002CDA87A72CD8A8899519A980D938D8A8E6
:1059F0008939A980DA3CD8A82EA83990D90CD8A822
:105A0000953198D90CD8A809D9FFD801DAFFD895D3
:105A100039A9DA26FFD890A80D8999A81080982175
:105A2000DA2ED88999A83180DA2ED8A886963180C6
:105A3000DA2ED8A8873180DA2ED8A88292F3418056
:105A4000F1D92ED8A882F31980F1D92ED882ACF3DF
:105A5000C0A28022F1A62EA72EA92298A829DAACEE
:105A6000DEFFD8A2F22AF1A92E8292A8F23180A6F6
:105A700096F1D900AC8C9C0C30ACDED0DEFFD88C1B
:105A80009CACD010ACDE8092A2F24C82A8F1CAF29B
:105A900035F19688A6D900D8F1FF0000000000007B
:105AA000555555555555C53F7D6FEB0312D6D4BF9F
:105AB0005544880E55C1C93F3B8F68B52882A4BFA5
:105AC00088B20175E0EF493F09F7FD0DE13D023F66
:105AD0004B2D8A1C273A03C0C88A599CE52A0040EE
